:020000040800F2
:1000000000000220DD0600082D0700082D0700086B
:100010002D0700082D0700082D070008000000002C
:100020000000000000000000000000002D07000894
:1000300000000000000000002D0700082D07000848
:100040002D0700082D0700082D0700082D070008C0
:100050002D0700082D0700082D0700082D070008B0
:100060002D0700082D0700082D0700082D070008A0
:100070002D0700082D0700082D0700082D07000890
:100080002D070008990600082D0700082D07000815
:100090002D0700082D0700082D0700082D07000870
:1000A0002D0700082D0700082D0700082D07000860
:1000B0002D0700082D0700082D0700082D07000850
:1000C0002D0700082D0700082D0700082D07000840
:1000D0002D0700082D070008BD0600082D070008A1
:1000E0002D0700082D0700082D0700082D07000820
:1000F0002D0700082D0700082D0700082D07000810
:100100002D0700082D0700082D0700082D070008FF
:100110002D0700082D0700082D0700082D070008EF
:100120002D0700082D0700082D0700082D070008DF
:100130002D07000800000000000000002D07000847
:100140002D0700082D0700082D0700082D070008BF
:100150002D0700082D0700082D0700082D070008AF
:100160002D0700082D0700082D0700082D0700089F
:100170002D0700082D0700082D07000800000000CB
:10018000000000000000000000000000000000006F
:100190002D07000800000000000000002D070008E7
:1001A0000000000000000000000000002D07000813
:1001B0002D0700082D0700082D0700082D0700084F
:0401C0002D070008FF
:1001C40010B5054C237833B9044B13B10448AFF38D
:1001D40000800123237010BD0400002000000000F3
:1001E4003007000808B5034B1BB103490348AFF3BC
:1001F400008008BD0000000008000020300700084F
:1002040070B50D4D0D4C641BA4100026A64209D1F7
:100214000B4D0C4C00F08AFA641BA4100026A64275
:1002240005D170BD55F8043B98470136EEE755F803
:10023400043B98470136F2E74807000848070008DE
:10024400480700085007000870477047024B13B175
:10025400024800F005B87047000000007102000871
:10026400002301461A46184600F014B838B5074D65
:10027400074C641BA4101CB9BDE8384000F05CBAFC
:10028400013C55F824309847F5E700BF50070008B3
:10029400540700082DE9F047DFF874A00646DAF8A1
:1002A400000098460F469146FFF7CEFF164B1C6898
:1002B4000CB9164C1C606568DAF800001F2D05DDCA
:1002C400FFF7C3FF4FF0FF30BDE8F0879EB104EBAA
:1002D40085010122C1F88890D4F88831AA401343DB
:1002E400C4F88831022EC1F8088102BFD4F88C31D9
:1002F4001343C4F88C316B1C0235636044F82570D9
:10030400FFF7A3FF0020DFE72400002028000020DF
:1003140000000020244B1B78002B44D130B54478D6
:10032400224B1C8022490B8803F1010C1FFA8CFC20
:10033400A1F800C002781F4DEA549A1C92B20A80B8
:1003440090F801E005F80CE003330B808378AB549C
:1003540000220CE016490B8803F1010CA1F800C03F
:10036400811891F803C0134901F803C0013243789E
:10037400043B9342EEDC0E4A1388591C1180407AE8
:100384000C49C8540C4BC3F8A440C3F8AC10D3F8C0
:10039400A01041F00101C3F8A01000231380024B08
:1003A40001221A7030BD7047D8010020C20100201C
:1003B400DA010020DC010020006002400F4B1B78B2
:1003C400D3B910B40E490B885A1C0A800D4CE05462
:1003D40001220D4B1A800D4BC3F8A420C3F8AC4086
:1003E400D3F8A0001043C3F8A00000230B80034BF4
:1003F4001A705DF8044B7047704700BFD8010020A5
:10040400DA010020DC010020C2010020006002406B
:1004140010B5964A136B43F4001343F005031363BA
:10042400136C43F400331364A2F56052136843F071
:10043400A003136002F50062136843F4AA0343F4B3
:10044400AA43136002F5B042D2F8883023F00103C6
:10045400C2F88830864BD3F8883013F0010FF9D1F5
:10046400834BD3F8882022F06062C3F88820D3F845
:10047400882042F00062C3F88820D3F8882022F054
:10048400C002C3F888201022C3F88C207949C3F82D
:100494009010794CC3F89440D3F8882022F4C052C9
:1004A400C3F88820D3F8882042F48072C3F88820E7
:1004B400D3F8882042F48062C3F888204FF4741281
:1004C400DA60D3F8A02022F06062C3F8A020D3F849
:1004D400A02042F00062C3F8A020C3F8A810D3F80B
:1004E400A02022F0C002C3F8A020D3F8A02042F03C
:1004F4004002C3F8A020D3F8A02042F48062C3F8DD
:10050400A020D3F8A02042F01002C3F8A020D3F812
:10051400A02022F4C052C3F8A020584A916841F4A4
:10052400D06141F002019160516941F0C001516113
:10053400D16841F00C01D160D16841F01001D16063
:10054400D16841F40051D160D3F8882042F001020F
:10055400C3F888204A4B40225A604FF400321A6094
:1005640002F18042136A43F4EE43136258E0454BB0
:1005740019705A70404989789970002306E0D91C93
:100584003D48405C3F491944C8700133111F9942EA
:10059400F5DC013A384B9B5C3A484372FFF7BAFEEC
:1005A40000232DE0384A936943F47F63936162200A
:1005B400FFF704FFF4E7344A936943F07F639361E0
:1005C4006320FFF7FBFEEBE7304B1B88062BE7D1DC
:1005D400294B18792C4B9A6942F07F629A619A6987
:1005E400082181400A439A616420FFF7E7FED7E7B8
:1005F4000020FFF7E3FED3E71F4A0021D154013363
:100604000F2BF9DD0023214A1380214A1370184B64
:10061400C3F89440D3F8882042F00102C3F888203C
:100624001B4B1B78002BFBD0114AD2F8883023F0E7
:100634000103C2F88830104B5A781978501E1B5C9D
:10064400AA2908BF552BABD10B4BDB78613B042B9C
:10065400A6D801A050F823F073050008A9050008E6
:10066400BB050008CD050008F50500080038024068
:100674000060024004440040C801002000440040DF
:1006840000E100E0B801002000080240C60100209B
:10069400C4010020064B5B6813F4001F07D0054B10
:1006A40000221A70024AD36843F40013D3607047DF
:1006B40000600240D8010020054B1B6813F0100FA6
:1006C40005D0034B1A685B68024B01221A7070470D
:1006D40000440040C40100200D488546AFF300806B
:1006E4000C480D490D4A002302E0D458C450043389
:1006F400C4188C42F9D30A4A0A4C002301E013605F
:100704000432A242FBD3FFF77BFDFFF781FEFEE735
:10071400000002200000002004000020540700080C
:1007240004000020EC010020FEE70000F8B500BF43
:10073400F8BC08BC9E467047F8B500BFF8BC08BCBE
:040744009E46704716
:0807480051020008E90100085C
:04075000C5010008D7
:040754002000002061
:04000005080006DD0C
:00000001FF
