:020000040800F2
:1000000000000220C50A0008150B0008150B0008A7
:10001000150B0008150B0008150B00080000000068
:10002000000000000000000000000000150B0008A8
:100030000000000000000000150B0008150B000870
:10004000150B0008150B0008150B0008150B000810
:10005000150B0008150B0008150B0008150B000800
:10006000150B0008150B0008150B0008150B0008F0
:10007000150B0008150B0008150B0008150B0008E0
:10008000150B0008A10A0008150B0008150B000845
:10009000150B0008150B0008150B0008150B0008C0
:1000A000150B0008150B0008150B0008150B0008B0
:1000B000150B0008150B0008150B0008150B0008A0
:1000C000150B0008150B0008150B0008150B000890
:1000D000150B0008150B0008150B0008150B000880
:1000E000150B0008150B0008150B0008150B000870
:1000F000150B0008150B0008150B0008150B000860
:10010000150B0008150B0008590A0008150B00080C
:10011000150B0008150B00087D0A0008150B0008D8
:10012000150B0008150B0008150B0008150B00082F
:10013000150B00080000000000000000150B00086F
:10014000150B0008150B0008150B0008150B00080F
:10015000150B0008150B0008150B0008150B0008FF
:10016000150B0008150B0008150B0008150B0008EF
:10017000150B0008150B0008150B00080000000007
:10018000000000000000000000000000000000006F
:10019000150B00080000000000000000150B00080F
:1001A000000000000000000000000000150B000827
:1001B000150B0008150B0008150B0008150B00089F
:0401C000150B000813
:1001C40010B5054C237833B9044B13B10448AFF38D
:1001D40000800123237010BD0400002000000000F3
:1001E400180B000808B5034B1BB103490348AFF3D0
:1001F400008008BD0000000008000020180B000863
:1002040070B50D4D0D4C641BA4100026A64209D1F7
:100214000B4D0C4C00F07EFC641BA4100026A6427F
:1002240005D170BD55F8043B98470136EEE755F803
:10023400043B98470136F2E7300B0008300B000806
:10024400300B0008380B000870477047024B13B19D
:10025400024800F005B87047000000007102000871
:10026400002301461A46184600F014B838B5074D65
:10027400074C641BA4101CB9BDE8384000F050BC06
:10028400013C55F824309847F5E700BF380B0008C7
:100294003C0B00082DE9F047DFF874A00646DAF8B5
:1002A400000098460F469146FFF7CEFF164B1C6898
:1002B4000CB9164C1C606568DAF800001F2D05DDCA
:1002C400FFF7C3FF4FF0FF30BDE8F0879EB104EBAA
:1002D40085010122C1F88890D4F88831AA401343DB
:1002E400C4F88831022EC1F8088102BFD4F88C31D9
:1002F4001343C4F88C316B1C0235636044F82570D9
:10030400FFF7A3FF0020DFE72400002028000020DF
:10031400000000201F4A136843F4803313601D4B10
:100324001B6813F4003FFAD01A4B9A6822F4E05287
:100334009A609A6842F480529A609A6842F4004241
:100344009A605968144A0A405A605A6842F0060290
:100354005A605A6842F4C8525A605A6842F4803269
:100364005A605A6842F480025A601A6842F08072F5
:100374001A60084B1B6813F0007FFAD0054A936893
:1003840043F002039360034B9B6803F00C03082BB8
:10039400F9D17047003802400080BCFF044B1A6852
:1003A40022F00F021A601A6842F001021A607047C4
:1003B400003C0240224A136B43F003031363214BB6
:1003C4001A6822F0FF021A601A6842F0AA021A6040
:1003D4001A6A120C12041A621A6A42F4EE421A627F
:1003E4001A6A42F011021A62DA6822F0FF02DA6035
:1003F400DA6842F00502DA6003F580631A6822F4D1
:100404007C521A601A6842F426421A601A6A22F070
:100414007F4222F470221A621A6A42F400321A628B
:100424001A6A42F008521A62DA6822F4734222F01D
:100434000302DA60DA6842F4A042DA60704700BF6F
:100444000038024000000240154A136B43F40013C5
:100454001363144B4FF47412DA60D3F8A02042F003
:100464000062C3F8A020104AC3F8A820D3F8A02043
:1004740042F04002C3F8A020D3F8A02042F48062E6
:10048400C3F8A020D3F8A02042F01002C3F8A020A3
:10049400D3F8A02022F4C052C3F8A020704700BFB4
:1004A4000038024000600240044400400B4A136CD0
:1004B40043F4003313640A4BDA6842F01002DA6042
:1004C4005A6942F080025A61D9229A60DA6842F489
:1004D400005242F00802DA60704700BF0038024060
:1004E40000440040094A136C43F010031364084BA2
:1004F40031229A6241F28832DA62DA6842F0010209
:10050400DA601A6842F001021A607047003802404B
:1005140000100040104B1A6C42F008021A641B6C65
:100524000E4B1A6822F001021A6031229A6241F2DB
:100534008832DA625A6942F001025A611A6922F079
:1005440001021A61DA6842F00102DA601A6842F0C4
:1005540001021A60704700BF00380240000C0040DE
:10056400174A136C43F002031364164B1A6822F003
:1005740001021A6031229A624FF47A72DA629A693D
:1005840022F073029A619A6942F060029A619A6950
:1005940042F008029A611A6A42F001021A621A6A67
:1005A40022F002021A625A6B120C12045A635A693C
:1005B40042F001025A611A6842F001021A6070475F
:1005C4000038024000040040094B202283F83623FF
:1005D400102283F83223002283F811234FF480225F
:1005E4005A604FF400321A604FF480025A60704728
:1005F40000E100E04FF08043586A00225A627047DD
:10060400024B586A00225A6200B270470008004048
:1006140010B5FFF7F5FF0446FFF7ECFF364B186003
:10062400364B1A6814441C601B68282B54DD334B6A
:1006340028221A60314BD3ED007AF8EEE77A9FED69
:10064400307AC7EE876A2F4BC3ED006A2A4B93EDCD
:10065400007AB8EEC77A9FED2C6AC7EE067A2B4B68
:10066400C3ED007A36EEE77A294B83ED007AB5EED6
:10067400C07AF1EE10FA39DD264B4FF400129A617C
:10068400B7EE006AB4EEC67AF1EE10FA01DDB0EE10
:10069400467A9FED216AF4EEC67AF1EE10FA0DD592
:1006A4009FED1E6AF4EEC67AF1EE10FA06DDF5EE61
:1006B400406AF1EE10FA01D19FED197A194AD36A12
:1006C400013307EE903AF8EE677A67EE877AFCEE2C
:1006D400E77AC2ED0D7A10BD084B1B6813F1280FA1
:1006E400A8DA064B6FF027021A60A3E7094B202211
:1006F4009A61B1EE477AC3E710020020B8010020E6
:1007040000002042C401002000003443C001002046
:10071400BC010020000402400AD7233C0AD723BCB2
:100724000000000000040040002803DB98B182B000
:10073400002331E0274B1B78DBB23F2B08D8254A36
:100744001378D9B20133DBB21370234B2D225A54E0
:10075400404200B2EAE71F4B1B78DBB23F2B38D88C
:100764001C4A1378D9B20133DBB213701A4B30220E
:100774005A547047194981FB0021C217C2EBA102E8
:1007840002EB8201A0EB4101303103F1080068441F
:1007940000F8081C10B201330028EBDC00E013461B
:1007A4005A1EA3B102F108036B4413F8081C094B49
:1007B4001B78DBB23F2BF2D8064803785FFA83FC40
:1007C4000133DBB20370044B03F80C10E7E702B00B
:1007D40070477047CC010020D00100206766666630
:1007E40070B53F4B93ED007AB8EEC77ADFED3D6A02
:1007F400C7EE267AFDEEE77A17EE903A18B200EBD0
:100804004000C0EB001085B2374BD3ED006A9FED7A
:10081400377AC6EE877AFDEEE77A17EE903A1BB286
:1008240003EB4303C3EB03139AB21CB2AD1A2DB20C
:100834002F4E002333702F4A012111702E4A13705A
:1008440000B2FFF771FF3378DBB23F2B07D8337860
:10085400D9B20133DBB23370284B20225A542046DC
:10086400FFF762FF224B1B78DBB23F2B08D8204AEC
:100874001378D9B20133DBB21370204B20225A54BF
:100884002846FFF751FF1A4B1B78DBB23F2B08D8E1
:10089400174A1378D9B20133DBB21370174B0D2208
:1008A4005A54134B1B78DBB23F2B08D8104A1378E9
:1008B400D9B20133DBB21370104B0A225A540C4BD9
:1008C4001A78D2B20E4BC3F8A4200C4AC3F8AC2059
:1008D400D3F8A02042F00102C3F8A02070BD00BFED
:1008E400B8010020CECCCC3EC00100206F12833A68
:1008F400CC010020CA010020CB010020D00100203F
:1009040000600240164A136C43F004031364154B51
:1009140000229A624FF6FF72DA625A6942F00102CB
:100924005A619A6822F007029A609A6842F00302B8
:100934009A609A6942F4807242F001029A619A695B
:1009440022F4704222F0F0029A619A6942F4405211
:1009540042F030029A611A6842F001021A6070474C
:100964000038024000080040174A136C43F00103AA
:1009740013644FF0804300229A624FF0FF32DA6230
:100984009A6822F007029A605A6942F001025A6199
:100994009A6842F003029A609A6942F4807242F0C3
:1009A40001029A619A6922F4704222F0F0029A617B
:1009B4009A6942F4405242F030029A611A6842F055
:1009C40001021A60704700BF0038024008B5FFF703
:1009D400E5FC1B4AD2F8883043F47003C2F888302F
:1009E400FFF798FCFFF7E6FCFFF7BEFFFFF7B8FD43
:1009F400FFF788FFFFF78EFDFFF774FDFFF724FD77
:100A0400FFF754FDFFF7E0FD0E4B1B785BB90E4B6F
:100A14001B78002BF8D0FFF7EDFD0C4B18600A4B48
:100A240000221A70F0E7FFF7F3FD094B1B781BB1A6
:100A3400044B00221A70EAE7FFF7D2FEF8E700BF82
:100A440000ED00E0C9010020C801002010020020D0
:100A5400CA010020064B1B6913F0010F07D0054B98
:100A640001221A70024A136923F0010313617047CB
:100A7400000C0040C9010020064B1B6913F0010F54
:100A840007D0054B01221A70024A136923F00103AF
:100A94001361704700100040C8010020064B5B68DA
:100AA40013F4001F07D0054B00221A70024AD368C2
:100AB40043F40013D360704700600240CA01002071
:100AC4000D488546AFF300800C480D490D4A0023BC
:100AD40002E0D458C4500433C4188C42F9D30A4AEF
:100AE4000A4C002301E013600432A242FBD3FFF757
:100AF40087FBFFF76BFFFEE70000022000000020E9
:100B0400040000203C0B0008040000201402002014
:100B1400FEE70000F8B500BFF8BC08BC9E4670476D
:0C0B2400F8B500BFF8BC08BC9E46704746
:080B300051020008E901000870
:040B3800C5010008EB
:040B3C002000002075
:0400000508000AC520
:00000001FF
