:020000040800F2
:1000000000000220950E0008E50E0008E50E00082D
:10001000E50E0008E50E0008E50E000800000000EF
:10002000000000000000000000000000E50E0008D5
:100030000000000000000000E50E0008E50E0008CA
:10004000E50E0008E50E0008E50E0008E50E0008C4
:10005000E50E0008E50E0008E50E0008E50E0008B4
:10006000E50E0008E50E0008E50E0008E50E0008A4
:10007000E50E0008E50E0008E50E0008E50E000894
:10008000E50E0008710E0008490E0008E50E000894
:10009000E50E0008E50E0008E50E0008E50E000874
:1000A000E50E0008E50E0008E50E0008E50E000864
:1000B000E50E0008E50E0008E50E0008E50E000854
:1000C000E50E0008E50E0008E50E0008E50E000844
:1000D000E50E0008E50E0008E50E0008E50E000834
:1000E000E50E0008E50E0008E50E0008E50E000824
:1000F000E50E0008E50E0008E50E0008E50E000814
:10010000E50E0008E50E0008E50E0008E50E000803
:10011000E50E0008E50E0008010E0008E50E0008D7
:10012000E50E0008E50E0008E50E0008E50E0008E3
:10013000E50E00080000000000000000E50E0008C9
:10014000E50E0008E50E0008E50E0008E50E0008C3
:10015000E50E0008E50E0008E50E0008E50E0008B3
:10016000E50E0008E50E0008E50E0008E50E0008A3
:10017000E50E0008E50E0008E50E0008000000008E
:10018000000000000000000000000000000000006F
:10019000E50E00080000000000000000E50E000869
:1001A000000000000000000000000000E50E000854
:1001B000E50E0008E50E0008E50E0008E50E000853
:0401C000E50E000840
:1001C80010B5054C237833B9044B13B10448AFF389
:1001D80000800123237010BD0C00002000000000E7
:1001E8005C19000808B5034B1BB103490348AFF37A
:1001F800008008BD00000000100000205C19000805
:1002080070B54FF0FF0C4CF4E06C1CEA11541DBFA4
:100218001CEA135594EA0C0F95EA0C0F00F0DEF86F
:100228002C4481EA030621EA4C5123EA4C5350EA54
:10023800013518BF52EA033541F4801143F48013A5
:1002480038D0A0FB02CE4FF00005E1FB02E506F036
:100258000042E0FB03E54FF00006E1FB03569CF08B
:10026800000F18BF4EF0010EA4F1FF04B6F5007F91
:1002780064F5407404D25FEA4E0E6D4146EB060603
:1002880042EAC62141EA55514FEAC52040EA5E508C
:100298004FEACE2EB4F1FD0C88BFBCF5E06F1ED836
:1002A800BEF1004F08BF5FEA500E50F1000041EB6D
:1002B800045170BD06F0004646EA010140EA02001A
:1002C80081EA0301B4EB5C04C2BFD4EB0C0541EA3C
:1002D800045170BD41F480114FF0000E013C00F351
:1002E800AB8014F1360FDEBF002001F0004170BD75
:1002F800C4F10004203C35DA0C341BDC04F114048E
:10030800C4F1200500FA05F320FA04F001FA05F219
:1003180040EA020001F0004221F0004110EBD370E6
:1003280021FA04F642EB06015EEA430E08BF20EA12
:10033800D37070BDC4F10C04C4F1200500FA04F3B5
:1003480020FA05F001FA04F240EA020001F0004147
:1003580010EBD37041F100015EEA430E08BF20EABA
:10036800D37070BDC4F1200500FA05F24EEA020E02
:1003780020FA04F301FA05F243EA020321FA04F031
:1003880001F0004121FA04F220EA020000EBD370E8
:100398005EEA430E08BF20EAD37070BD94F0000FE8
:1003A8000FD101F00046400041EB010111F4801F1C
:1003B80008BF013CF7D041EA060195F0000F18BFCD
:1003C800704703F00046520043EB030313F4801F09
:1003D80008BF013DF7D043EA0603704794EA0C0FC3
:1003E8000CEA135518BF95EA0C0F0CD050EA4106D9
:1003F80018BF52EA4306D1D181EA030101F0004156
:100408004FF0000070BD50EA410606BF104619467D
:1004180052EA430619D094EA0C0F02D150EA013689
:1004280013D195EA0C0F05D152EA03361CBF1046CA
:1004380019460AD181EA030101F0004141F0FE4169
:1004480041F470014FF0000070BD41F0FE4141F4ED
:10045800780170BD81F0004102E000BF83F00043E5
:1004680030B54FEA41044FEA430594EA050F08BF47
:1004780090EA020F1FBF54EA000C55EA020C7FEA0B
:10048800645C7FEA655C00F0E2804FEA5454D4EB88
:100498005555B8BF6D420CDD2C4480EA020281EA52
:1004A800030382EA000083EA010180EA020281EA8A
:1004B8000303362D88BF30BD11F0004F4FEA0131DC
:1004C8004FF4801C4CEA113102D0404261EB4101EB
:1004D80013F0004F4FEA03334CEA133302D0524271
:1004E80063EB430394EA050F00F0A780A4F101042D
:1004F800D5F1200E0DDB02FA0EFC22FA05F2801867
:1005080041F1000103FA0EF2801843FA05F359414C
:100518000EE0A5F120050EF1200E012A03FA0EFCCB
:1005280028BF4CF0020C43FA05F3C01851EBE371F5
:1005380001F0004507D54FF0000EDCF1000C7EEB12
:1005480000006EEB0101B1F5801F1BD3B1F5001F50
:100558000CD349085FEA30004FEA3C0C04F101046F
:100568004FEA445212F5800F80F09A80BCF1004F98
:1005780008BF5FEA500C50F1000041EB045141EA1A
:10058800050130BD5FEA4C0C404141EB0101013CE3
:1005980028BFB1F5801FE9D291F0000F04BF0146D2
:1005A8000020B1FA81F308BF2033A3F10B03B3F1A4
:1005B80020020CDA0C3208DD02F1140CC2F10C0234
:1005C80001FA0CF021FA02F10CE002F11402D8BF92
:1005D800C2F1200C01FA02F120FA0CFCDCBF41EA5E
:1005E8000C019040E41AA2BF01EB0451294330BD2D
:1005F8006FEA04041F3C1CDA0C340EDC04F114040A
:10060800C4F1200220FA04F001FA02F340EA0300E0
:1006180021FA04F345EA030130BDC4F10C04C4F126
:10062800200220FA02F001FA04F340EA0300294606
:1006380030BD21FA04F0294630BD94F0000F83F450
:10064800801306BF81F480110134013D4EE77FEA33
:10065800645C18BF7FEA655C29D094EA050F08BF7F
:1006680090EA020F05D054EA000C04BF1946104660
:1006780030BD91EA030F1EBF0021002030BD5FEAA4
:10068800545C05D14000494128BF41F0004130BDCC
:1006980014F580043CBF01F5801130BD01F0004520
:1006A80045F0FE4141F470014FF0000030BD7FEA93
:1006B800645C1ABF194610467FEA655C1CBF0B468E
:1006C800024650EA013406BF52EA033591EA030FA5
:1006D80041F4002130BD00BF90F0000F04BF00219D
:1006E800704730B54FF4806404F132044FF00005D0
:1006F8004FF0000150E700BF90F0000F04BF002149
:10070800704730B54FF4806404F1320410F00045AE
:1007180048BF40424FF000013EE700BF42004FEAA9
:10072800E2014FEA31014FEA02701FBF12F07F4326
:1007380093F07F4F81F06051704732F07F4208BFDD
:10074800704793F07F4F04BF41F40021704730B5E4
:100758004FF4607401F0004521F000411CE700BF30
:1007680050EA010208BF704730B54FF000050AE0B3
:1007780050EA010208BF704730B511F0004502D5B4
:10078800404261EB41014FF4806404F132045FEAB6
:10079800915C3FF4D8AE4FF003025FEADC0C18BF5F
:1007A80003325FEADC0C18BF033202EBDC02C2F151
:1007B800200300FA03FC20FA02F001FA03FE40EAE3
:1007C8000E0021FA02F11444BDE600BF4FEA4102CF
:1007D800B2F1E04324BFB3F5001CDCF1FE5C0DD997
:1007E80001F0004C4FEAC0024CEA5070B2F1004FE1
:1007F80040EB830008BF20F00100704711F0804FE4
:1008080021D113F13872BCBF01F00040704741F4A8
:1008180080114FEA5252C2F11802C2F1200C10FAAC
:100828000CF320FA02F018BF40F001004FEAC12390
:100838004FEAD32303FA0CFC40EA0C0023FA02F334
:100848004FEA4303CCE77FEA625307D150EA01330A
:100858001EBF4FF0FE4040F44000704701F00040DA
:1008680040F0FE4040F40000704700BF70B50D4DE9
:100878000D4C641BA4100026A64209D10B4D0C4C4C
:1008880001F068F8641BA4100026A64205D170BDCB
:1008980055F8043B98470136EEE755F8043B98476E
:1008A8000136F2E7441D0008441D0008441D0008F5
:1008B8004C1D000870477047024B13B1024800F006
:1008C80005B8704700000000E10800080023014651
:1008D8001A46184600F014B838B5074D074C641B83
:1008E800A4101CB9BDE8384001F03AB8013C55F8ED
:1008F80024309847F5E700BF4C1D0008501D00083C
:100908002DE9F047DFF874A00646DAF800009846AB
:100918000F469146FFF7CEFF164B1C680CB9164CD4
:100928001C606568DAF800001F2D05DDFFF7C3FFBE
:100938004FF0FF30BDE8F0879EB104EB850101223E
:10094800C1F88890D4F88831AA401343C4F8883194
:10095800022EC1F8088102BFD4F88C311343C4F8C1
:100968008C316B1C0235636044F82570FFF7A3FFD8
:100978000020DFE72C0000203000002000000020CD
:10098800034AD2F8883043F47003C2F888307047BD
:1009980000ED00E0044B1A6822F00F021A601A6892
:1009A80042F001021A607047003C0240000000005B
:1009B80008B52DED028B104B93ED008A18EE100A46
:1009C800FFF7ACFE0AA3D3E90023FFF719FCFFF7F2
:1009D800FDFE0A4B18609FED0A7AC7EE087AFCEE16
:1009E800E77A084B17EE902A1A80BDEC028B08BDF7
:1009F800182D4454FB21194004000020C801002090
:100A080000401C46D00100200C4B1B78A3B90C4AAF
:100A1800AA231370030A53709070084B01211970B0
:100A2800084B0321C3F8A410C3F8AC20D3F8A020C6
:100A380042F00102C3F8A020704700BFD501002092
:100A4800C0010020006002402A4A136843F4803342
:100A58001360284B1B6813F4003FFAD0254B9A68A3
:100A680022F4E0529A609A6842F480529A609A6836
:100A780042F400429A6059681F4A0A405A605A680C
:100A880042F004025A605A6842F4C8525A605A68DE
:100A980042F480325A605A6842F480025A601A68F6
:100AA80042F080721A60134B1B6813F0007FFAD073
:100AB800104A936843F0020393600E4B9B6803F05F
:100AC8000C03082BF9D10B4B5A6C42F480725A6410
:100AD8001A6C42F400321A641A6C42F0005242F066
:100AE80011021A641A6B42F4001242F005021A63EA
:100AF800704700BF003802400080BCFF1D4A936861
:100B080043F0010393601B4B9B6813F0010FFAD06D
:100B1800184B9A6822F040529A609A6842F08052C4
:100B28009A609A6822F070629A609A6842F0C0628D
:100B38009A605A6B22F01F025A635A6B42F0010204
:100B48005A63DA6A22F47002DA625A6822F0407252
:100B58005A601A6922F007021A611A6942F0010202
:100B68001A619A6822F002029A605A6842F02002DA
:100B78005A60704700200140074A136843F0010398
:100B88001360054B1B6813F0010FFAD0024B4FF4AA
:100B980000629A60704700BF00740040084B1A68F2
:100BA80022F47F721A601A6842F0A0021A601A686A
:100BB80042F440721A601A6842F00C021A607047D8
:100BC80000000240104B19229A60DA6842F00802CD
:100BD800DA60DA6822F4A052DA605A6942F08002D8
:100BE8005A611A6922F440521A61DA6842F40052D2
:100BF800DA6003F5DE331A6A22F47F421A621A6A4F
:100C080042F4EE421A62704700440040064B31221B
:100C18009A626622DA62DA6842F00102DA601A68D9
:100C280042F001021A607047001000404FF0804304
:100C380032229A626722DA625A6822F070025A6097
:100C48005A6842F020025A601A6842F001021A609B
:100C580070470000054B4FF480025A604FF4802221
:100C68001A604FF400321A60704700BF00E100E0DC
:100C780070B52DED028B06460D4600241CE0114B85
:100C880093ED008AF6EE007A28EE278A07EE904A5E
:100C9800F8EE677A0C4B93ED007A67EE877A9FED52
:100CA8000B0A87EE800A00F01BF906EB840328EE96
:100CB800008A83ED008A0134AC42E0D3BDEC028B9C
:100CC80070BD00BF08000020C801002000401C467D
:100CD800124B4FF47412DA60D3F8A02042F000628D
:100CE800C3F8A0200E4AC3F8A820D3F8A02042F0E9
:100CF8004002C3F8A020D3F8A02042F48062C3F8D1
:100D0800A020D3F8A02042F01002C3F8A020D3F806
:100D1800A02022F4C052C3F8A0207047006002400F
:100D28000444004098B500AFFFF734FEFFF78CFE8F
:100D3800FFF726FEFFF73CFEFFF730FFFFF71CFF2B
:100D4800FFF7DCFEFFF7C4FFFFF73CFFFFF75EFF8E
:100D5800FFF76CFFFFF77EFF1D4B19888B000733E9
:100D6800DB086A46A2EBC3039D466C462046FFF7A4
:100D78007FFF1FE0174B1B8804EB830393ED007A7A
:100D8800DFED157A37EE277A144B83ED007ADFED25
:100D9800146AC7EE267A9FED137A67EE877AFCEE1F
:100DA800E77A114BC3ED027A104B00221A70104BF0
:100DB8001B7823B90D4B1B78002BF8D0DAE70D4BC5
:100DC8001888FFF721FE0A4B00221A70F2E700BFCD
:100DD800D0010020D20100203333D33FCC010020C2
:100DE8003333534000F07F4500740040D6010020A3
:100DF800D4010020C40100200D4B1B6913F0010F22
:100E080010D00B4A136923F001031361094B1A88A8
:100E1800511C1980084B1B88013B9A4203D0074B91
:100E280001221A707047034B00221A80F7E700BFAF
:100E380000100040D2010020D0010020D60100207F
:100E4800064B1B6813F0020F06D0044BDA6C044BF8
:100E58001A80044B01221A70704700BF002001401D
:100E6800C4010020D4010020064B5B6813F4001F66
:100E780007D0054B00221A70024AD36843F40013C6
:100E8800D360704700600240D50100200D488546B8
:100E9800AFF300800C480D490D4A002302E0D458F6
:100EA800C4500433C4188C42F9D30A4A0A4C0023AC
:100EB80001E013600432A242FBD3FFF7D7FCFFF72F
:100EC80031FFFEE700000220000000200C00002097
:100ED800501D00080C000020D8010020FEE700008B
:100EE80010EE103A07B51F4A23F00043934207D883
:100EF800DFED1D0A002003B05DF804EB00F08EB8AA
:100F0800B3F1FF4F04D330EE400A03B05DF804FBA1
:100F1800684600F0CBF800F0030001280AD0022848
:100F28000FD0C0B9DDED010A9DED000A012000F0E7
:100F380075F8EAE7DDED010A9DED000A00F016F804
:100F4800E3E7DDED010A9DED000A012000F066F8F7
:100F5800B1EE400AD9E7DDED010A9DED000A00F087
:100F680005F8F5E7D80F493F0000000010EE103AE9
:100F780023F00043B3F1485FF0EE406AB7EE000A91
:100F880004D2FDEEE67A17EE902A42B326EEA67A50
:100F9800DFED1A7A9FED1A6A1A4AA7EE276A93427A
:100FA800DFED197AE6EE077A9FED186AA7EE876AF1
:100FB800DFED177AE6EE077A9FED166AA7EE876AE5
:100FC80060EEE60A26EE076AF6EE007AE7EE060A13
:100FD80067EE277A04D877EEE07A30EE670A704732
:100FE8000D4A93429ABF03F17F4307EE103AB5EEDC
:100FF800027A30EE470A77EEC77AECE74ED747AD6C
:10100800F6740F319999993E7CF293B4010DD0375B
:10101800610BB6BAABAA2A3D0000483F10EE103A61
:1010280023F00043B3F1485F04D2FDEEC07A17EE17
:10103800903A5BB320EE007ADFED157A9FED156AE2
:10104800A7EE276ADFED147AE6EE077A9FED136ABA
:10105800A7EE876ADFED127A60EE076AE6EE077A96
:1010680030B99FED106AA7EE276AA6EE260A7047E8
:1010780067EEE67AB6EE006AE0EE867AD7EE870A81
:10108800DFED097AE6EEA70A30EE600A704700BF86
:10109800D3C92E2F342FD7B21BEF3836010D50B9D4
:1010A8008988083CABAA2ABEABAA2A3EF0B510EE46
:1010B800106A884B26F000459D4287B0044605D843
:1010C800002380ED000A4360002022E0824B9D420D
:1010D8003AD826F00043002E9FED807A804A23F00C
:1010E8000F0318DD934270EE477A09BF9FED7D7AB2
:1010F800DFED7D6ADFED7D6A77EEC77A37EEE67A57
:1011080077EEC77A80ED007A77EEE67AC0ED017A5D
:10111800012007B0F0BD934270EE077A09BF9FED3A
:10112800717ADFED716ADFED716A77EE877A37EEF3
:10113800A67A77EEC77A80ED007A77EEA67AC0EDC8
:10114800017A4FF0FF30E4E7694B9D4273D800F015
:10115800DDF89FED687AF6EE007AE0EE077AFDEEAC
:10116800E77AB8EEE77A17EE900ADFED5C7AA7EE39
:10117800670A1F28DFED5C7A67EE277AB1EE476AC7
:1011880070EE676A16EE901A09DC5B4A471E26F075
:10119800004352F8272023F0FF03934207D1C1F3FD
:1011A800C752C2EBD552082A4FEAE55314DC216036
:1011B80094ED007A30EE470A002E30EE670A84ED8F
:1011C800010AA6DAB1EE477AB1EE400A84ED007A58
:1011D80084ED010A40429CE7DFED425AF0EE406A96
:1011E800E6EE256A70EE667AE6EE257ADFED3F5A7E
:1011F800D7EE257A76EEE75A15EE902AC2F3C75154
:101208005B1A192B04DCC4ED005AB0EE660ACFE76E
:10121800DFED3A5AB0EE660AA6EE250A76EEC07AF7
:10122800DFED376AE6EE257AD7EE267A30EE677A72
:1012380084ED007ABCE7B5F1FF4F06D370EE407A33
:10124800C0ED017AC0ED007A3EE7EA15863AA5EBD3
:10125800C25307EE903ABDEEE77ADFED2A6AB8EEA0
:10126800C77A77EEC77A8DED037A67EEA67ABDEE78
:10127800E77AB8EEC77A77EEC77A8DED047A67EE2B
:10128800A67AF5EE407AF1EE10FACDED057A1ED188
:10129800B5EE407AF1EE10FA0CBF012302231A4989
:1012A80001910221009103A8214600F037F8002E91
:1012B800BFF62FAFD4ED007AF1EE677AC4ED007A6D
:1012C800D4ED017AF1EE677AC4ED017A82E703235F
:1012D800E5E700BFD80F493FE3CB1640800FC93F71
:1012E800D00FC93F004435374344353708A3852E0E
:1012F800800F494384F9223F7419000800A3852E02
:1013080032318D2400008043F419000810EE103AA1
:1013180023F0004300EE103A704700002DE9F04F2B
:101328002DED048BD9B090460190B94A669818F112
:10133800040F52F820A00F4603F1FF3B27DBB8F15A
:10134800030248BF08F10402D210551C67999FEDAB
:10135800B47AE800A2EB0B060290A8EBC5050AEBED
:101368000B0C1CAC01EB860E0020604511DD1CA99E
:1013780001EB83000DF588794FF0000CD44527DC8C
:10138800DDF804E0DFEDA67A0646002416E0002228
:10139800DBE7C6425DBF5EF8201007EE901AF8EE54
:1013A800E77AF0EE477AE4EC017A0130DDE7FEEC0B
:1013B800016A96ED007AE6EE877A01345C45A6F17B
:1013C8000406F4DDE9EC017A0CF1010C0430D5E7F0
:1013D80008A901EB8A0104916799DFED908A9FEDD6
:1013E8008E9A01EB820203925446A200059258AAF3
:1013F80002EB840212ED140A44A908AA01EB840046
:1014080094462646002EA0F104004CDC2846CDE97F
:10141800062300F0F5F9B0EE408AB4EE000A28EE93
:10142800000A00F053FAF2EE007AA0EE678A002D67
:10143800DDE90623FDEEC87A17EE909AF8EEE77A12
:1014480038EE678A41DD04F1FF3C08A9C5F1080EB2
:1014580051F82C6046FA0EF0814400FA0EF0361A64
:10146800C5F1070041F82C600641002E3CDD4FF025
:10147800000E09F101097046744568DC002D03DD92
:10148800012D74D0022D7DD0022E2DD1B7EE000A89
:1014980030EE488A40B32846069300F0B1F9069B1F
:1014A80038EE408A20E060EE287A013EFDEEE77AC9
:1014B800F8EEE77AA7EEC90ABDEEC00AACEC010A5D
:1014C80090ED000A37EE800A9CE705D1601E08A956
:1014D80051F82060F611C8E7F6EE007AB4EEE78A14
:1014E800F1EE10FA31DA0026B5EE408AF1EE10FA84
:1014F80040F09880601E002250454BDA002A65D0E3
:10150800013C08AB083D53F82430002BF8D028469E
:10151800B7EE000A00F074F9631C44AA9FED3F7A05
:10152800990002EB83022346002B80F2A980234610
:10153800002BC0F2C78044AA02EB8305DFF8D4C0B1
:10154800DFED377A0020E21AB1E002268FE752F881
:10155800041B48B921B1C1F5807142F8041C01216E
:101568000EF1010E084687E7C1F1FF01F5E704F126
:10157800FF3C08AA52F82C2002F07F0208A941F883
:101588002C2081E704F1FF3C08AA52F82C2002F035
:101598003F02F3E708A951F8201001380A43ABE7E6
:1015A800013250F8046D002EFAD0059901F5B0719A
:1015B8000DEB0100E6181CA904F1010C4C3801EBF5
:1015C80086062244624504DA14460EE7049801228E
:1015D800E7E70399DDF804E051F82C10059107EED0
:1015E800901AF8EEE77A0024E6EC017ADFED0C7A3F
:1015F800B1465C4504DDE0EC017A0CF1010CE1E751
:10160800FEEC016A39ED017A0134E6EE877AF0E7FB
:10161800381D00080C1D0008000080430000803BB6
:1016280000000000029BB0EE480AA3EB080000F09F
:10163800E7F81FED077AB4EEC70AF1EE10FA19DBE6
:101648005FED0A7A60EE277A08AAFDEEE77A083598
:10165800F8EEE77AA7EEC70AFDEEE77ABDEEC00A14
:1016680010EE103A42F8243017EE903A013442F85E
:1016780024304CE7BDEEC00A08AA10EE103AF6E78F
:1016880008A850F82300019007EE900AF8EEE77AD0
:10169800013B67EE807A20EE070A62ED017A43E7A4
:1016A800FCEC016AB5EC017AE6EE877A0130504528
:1016B80001DC8242F4DA58A800EB820242ED287A73
:1016C800013B35E7669B022B09DC002B2BDC44D061
:1016D80009F0070059B0BDEC048BBDE8F08F669B9C
:1016E800032BF5D130AA0B1F13441A4620460028B5
:1016F800A2F1040252DC2246012AA3F104035DDCB4
:1017080030AB5FED397A0B44012C67DCDDED306AD4
:101718009DED317A002E67D1C7ED006A87ED017A19
:10172800C7ED027AD4E730AB1FED437A0B4422466B
:10173800002A24DA4EB3F1EE477AC7ED007ADDEDE0
:10174800307A77EEC77A31AA01239C4220DA0EB1AB
:10175800F1EE677AC7ED017ABAE730AB5FED507A00
:101768000B44002C05DA0EB1F1EE677AC7ED007A6A
:10177800AEE733ED017A013C77EE877AF1E773ED56
:10178800017A013A37EE277AD2E7F0EE477AD4E7C2
:10179800B2EC017A013377EE877AD6E7D2ED007A98
:1017A800D2ED016A37EEA67A013877EEC77A82ED74
:1017B800007A77EEA67AC2ED017A98E7D3ED007A3F
:1017C800D3ED016A37EEA67A013A77EEC77A83ED50
:1017D800007A77EEA67AC3ED017A8DE733ED017AC8
:1017E800013C77EE877A8FE7F1EE666AB1EE477AC9
:1017F800C7ED006A87ED017AF1EE677A90E700BFDE
:1018080010EE103A33F000422BD0B2F1FF4F02D362
:1018180030EE000A704713F0FF4F23D1244BDFED61
:10182800257A984220EE270A17DB10EE103AC3F308
:10183800C752193A4CF25031884215DDDFED1E7A55
:10184800DFED1E6A10EE103AB0EE677A002BB8BFD3
:10185800F0EE667A27EE870A7047DFED197A27EEF1
:10186800800A7047D20DE5E71044FE28E6DC002820
:1018780006DD23F0FF4343EAC05300EE103A7047F9
:1018880010F1160F09DADFED0E7ADFED0E6A10EEB1
:10189800103AB0EE677A002BD9E7193023F0FF43EE
:1018A80043EAC0539FED080A07EE903AD7E700BF16
:1018B800B03CFFFF0000004CCAF24971CAF249F17E
:1018C8006042A20D6042A28D0000003310EE103A73
:1018D800C3F3C7527F3A162A23F000412BDC002AB3
:1018E80012DADFED197A30EE270AB5EEC00AF1EE0A
:1018F80010FA06DD002B24DA0029144B08BF4FF03C
:10190800004300EE103A7047114911410B42FAD0DA
:10191800DFED0D7A30EE270AB5EEC00AF1EE10FAC7
:10192800EFDD002BBEBF4FF4000040FA02F29B1817
:1019380023EA0103E5E7B1F1FF4FE4D330EE000AF3
:1019480070470023DDE700BFCAF24971000080BF7D
:10195800FFFF7F00F8B500BFF8BC08BC9E46704783
:0C196800F8B500BFF8BC08BC9E467047F4
:10197400000FC93F000F494000CB9640000FC940FB
:101984000053FB4000CB164100ED2F41000F4941AD
:101994000031624100537B41003A8A4100CB9641B9
:1019A400005CA34100EDAF41007EBC41000FC94182
:1019B40000A0D5410031E24100C2EE410053FB4199
:1019C40000F20342003A0A420083104200CB16425E
:1019D40000141D42005C234200A5294200ED2F4261
:1019E40000363642007E3C4200C74242000F494264
:1019F400A2000000F9000000830000006E00000057
:101A04004E00000044000000150000002900000002
:101A1400FC0000002700000057000000D100000077
:101A2400F500000034000000DD000000C0000000EC
:101A3400DB00000062000000950000009900000037
:101A44003C00000043000000900000004100000042
:101A5400FE0000005100000063000000AB00000025
:101A6400DE000000BB000000C500000061000000B3
:101A7400B7000000240000006E0000003A000000DF
:101A8400420000004D000000D2000000E000000011
:101A940006000000490000002E000000EA000000DB
:101AA40009000000D1000000920000001C000000AA
:101AB400FE0000001D000000EB0000001C00000000
:101AC400B100000029000000A70000003E00000053
:101AD400E80000008200000035000000F50000006E
:101AE4002E000000BB000000440000008400000041
:101AF400E90000009C0000007000000026000000C7
:101B0400B40000005F0000007E00000041000000FF
:101B14003900000091000000D600000039000000E8
:101B2400830000005300000039000000F4000000AE
:101B34009C000000840000005F0000008B00000097
:101B4400BD000000F9000000280000003B00000078
:101B54001F000000F800000097000000FF000000D4
:101B6400DE00000005000000980000000F000000E7
:101B7400EF0000002F000000110000008B000000A7
:101B84005A0000000A0000006D0000001F00000061
:101B94006D000000360000007E000000CF00000051
:101BA40027000000CB00000009000000B70000007F
:101BB4004F000000460000003F00000066000000E7
:101BC4009E0000005F000000EA0000002D000000FD
:101BD4007500000027000000BA000000C7000000E4
:101BE400EB000000E5000000F10000007B000000B5
:101BF4003D0000000700000039000000F70000006D
:101C04008A0000005200000092000000EA00000078
:101C14006B000000FB0000005F000000B10000004A
:101C24001F0000008D0000005D000000080000009F
:101C340056000000030000003000000046000000D1
:101C4400FC0000007B0000006B000000AB00000003
:101C5400F0000000CF000000BC00000020000000E5
:101C64009A000000F4000000360000001D0000008F
:101C7400A9000000E30000009100000061000000E2
:101C84005E000000E60000001B00000008000000E9
:101C94006500000099000000850000005F0000005E
:101CA40014000000A00000006800000040000000D4
:101CB4008D000000FF000000D8000000800000003C
:101CC4004D000000730000002700000031000000F8
:101CD4000600000006000000150000005600000089
:101CE400CA00000073000000A8000000C900000042
:101CF40060000000E20000007B000000C000000063
:101D04008C0000006B0000000000C93F0000F039A7
:101D14000000DA370000A2330000842E0000502BAC
:101D24000000C2270000D0220000C41F0000C61B10
:101D34000000441704000000070000000900000030
:081D4400C1080008ED010008D0
:041D4C00C9010008C1
:0C1D50002800002000007041000000404E
:0400000508000E954C
:00000001FF
