:020000040800F2
:100000000000022061070008B1070008B1070008DE
:10001000B1070008B1070008B107000800000000A0
:10002000000000000000000000000000B107000810
:100030000000000000000000B1070008B107000840
:10004000B1070008B1070008B1070008B1070008B0
:10005000B1070008B1070008B1070008B1070008A0
:10006000B1070008B1070008B1070008B107000890
:10007000B1070008B1070008B1070008B107000880
:10008000B1070008B1070008B1070008B107000870
:10009000B1070008B1070008B1070008B107000860
:1000A000B1070008B1070008B1070008B107000850
:1000B000B10700083D070008B1070008B1070008B4
:1000C000B1070008B1070008B1070008B107000830
:1000D000B1070008B10700080D070008B1070008C4
:1000E000B1070008B1070008B1070008B107000810
:1000F000B1070008B1070008B1070008B107000800
:10010000B1070008B1070008B1070008B1070008EF
:10011000B1070008B1070008B1070008B1070008DF
:10012000B1070008B1070008B1070008B1070008CF
:10013000B10700080000000000000000B10700083F
:10014000B1070008B1070008B1070008B1070008AF
:10015000B1070008B1070008B1070008B10700089F
:10016000B1070008B1070008B1070008B10700088F
:10017000B1070008B1070008B1070008000000003F
:10018000000000000000000000000000000000006F
:10019000B10700080000000000000000B1070008DF
:1001A000000000000000000000000000B10700088F
:1001B000B1070008B1070008B1070008B10700083F
:0401C000B10700087B
:1001C40010B5054C237833B9044B13B10448AFF38D
:1001D40000800123237010BD0400002000000000F3
:1001E400B407000808B5034B1BB103490348AFF338
:1001F400008008BD0000000008000020B4070008CB
:1002040070B50D4D0D4C641BA4100026A64209D1F7
:100214000B4D0C4C00F0CCFA641BA4100026A64233
:1002240005D170BD55F8043B98470136EEE755F803
:10023400043B98470136F2E7D8070008D8070008BE
:10024400D8070008E007000870477047024B13B155
:10025400024800F005B87047000000007102000871
:10026400002301461A46184600F014B838B5074D65
:10027400074C641BA4101CB9BDE8384000F09EBABA
:10028400013C55F824309847F5E700BFE007000823
:10029400E40700082DE9F047DFF874A00646DAF811
:1002A400000098460F469146FFF7CEFF164B1C6898
:1002B4000CB9164C1C606568DAF800001F2D05DDCA
:1002C400FFF7C3FF4FF0FF30BDE8F0879EB104EBAA
:1002D40085010122C1F88890D4F88831AA401343DB
:1002E400C4F88831022EC1F8088102BFD4F88C31D9
:1002F4001343C4F88C316B1C0235636044F82570D9
:10030400FFF7A3FF0020DFE72400002028000020DF
:1003140000000020044B10225A6040225A604FF023
:1003240000521A60704700BF00E100E0044B1A68F5
:1003340022F00F021A601A6842F001021A60704734
:10034400003C02401F4A136843F4803313601D4B82
:100354001B6813F4003FFAD01A4B9A6822F4E05257
:100364009A609A6842F480529A609A6842F4004211
:100374009A605968144A0A405A605A6842F0040262
:100384005A605A6842F4C8525A605A6842F4803239
:100394005A605A6842F480025A601A6842F08072C5
:1003A4001A60084B1B6813F0007FFAD0054A936863
:1003B40043F002039360034B9B6803F00C03082B88
:1003C400F9D17047003802400080BCFF1D4A136B0E
:1003D40043F003031363A2F55052136823F04F4311
:1003E40023F0FC031360136843F00843136013689D
:1003F40043F0807343F054031360134B196821F4E2
:100404007C011960196841F4A8011960516A21F04E
:10041400704121F470015162516A41F0A04141F4EC
:10042400A00151624FF000629A614FF400729A6128
:100434001A6842F080021A601A6A42F4E0421A62B0
:10044400704700BF00380240000002400D4A136CA0
:1004540043F4804313640C4B1A6822F400621A605C
:100464001A6822F038021A601A6842F004021A600C
:100474001A6842F440721A601A6842F040021A6024
:10048400704700BF0038024000380040094A136C2E
:1004940043F400331364084BD9229A605A6942F03A
:1004A40040025A61DA6842F4005242F01402DA60FF
:1004B400704700BF0038024000440040204A136BDC
:1004C40043F40013136302F52052D2F8883023F06A
:1004D4000103C2F888301B4BD3F8883013F0010FA6
:1004E400F9D1184B4FF47462DA60D3F8882022F003
:1004F4006062C3F88820D3F8882042F00062C3F811
:100504008820D3F8882022F0C002C3F88820032270
:10051400C3F88C200C4AC3F890200C4AC3F89420EA
:10052400D3F8882022F4C052C3F88820D3F8882056
:1005340042F4A06242F00102C3F88820704700BF71
:10054400003802400060024004440040C80100201A
:10055400092803D8072901D8014B5854704700BF14
:10056400BC010020072813D8072811D8DFE800F0C1
:1005740011130406080A0C0EFB207047F72070477D
:10058400EF207047DF207047BF2070477F207047FF
:100594007047FE207047FD207047000009282ED8C0
:1005A400034607292BD810B5154A4FF08060906197
:1005B400144AD45C0846FFF7D5FF134B1870134B4D
:1005C4009B6813F0020FFAD0104BDC600F4B9B6852
:1005D40013F0800FFAD10D4B9B6813F0020FFAD081
:1005E400094B1B78DBB2094AD360084B9B6813F0B4
:1005F400800FFAD1024B4FF480629A6110BD7047AC
:1006040000000240CC070008B90100200038004077
:10061400002303E0034AD3540133DBB2072BF9D997
:10062400704700BFBC0100200C4B1A6C42F0020260
:100634001A641B6C0A4B1A6822F001021A603122F8
:100644009A624FF47A72DA621A6922F001021A612C
:10065400DA6842F00102DA60704700BF00380240F5
:100664000004004008B5214AD2F8883043F47003EE
:10067400C2F88830FFF75AFEFFF7A8FEFFF762FEC4
:10068400FFF7E4FEFFF746FEFFF700FFFFF716FF54
:10069400FFF7CAFFFFF7BCFF154A136843F00103D5
:1006A400136002E0134B1B7863B9134B1B78002BC8
:1006B400F8D0124B58789978FFF74AFF0E4B002276
:1006C4001A70EFE70E4A1378591C1170062B02D9E1
:1006D400134600221A700A4B19780A4B585CFFF72C
:1006E4005DFF044B00221A70DFE700BF00ED00E05D
:1006F40000040040C4010020C5010020C8010020FE
:10070400B8010020BC010020084B1B6813F0100F37
:1007140007D0064B1A685B68054B1B78DBB2AA2B23
:1007240000D07047034B01221A70FAE700440040DE
:10073400C8010020C5010020064B1B6913F0010FFE
:1007440007D0054B01221A70024A136923F00103F2
:100754001361704700040040C40100200D48854621
:10076400AFF300800C480D490D4A002302E0D45831
:10077400C4500433C4188C42F9D30A4A0A4C0023E7
:1007840001E013600432A242FBD3FFF739FDFFF707
:1007940069FFFEE7000002200000002004000020A2
:1007A400E407000804000020CC010020FEE700005C
:1007B400F8B500BFF8BC08BC9E467047F8B500BF4A
:0807C400F8BC08BC9E4670471A
:0C07CC003F065B4F666D7D077F6F0000ED
:0807D80051020008E9010008CC
:0407E000C501000847
:0407E40020000020D1
:040000050800076187
:00000001FF
