:020000040800F2
:1000000000000220650A0008B50A0008B50A0008C9
:10001000B50A0008B50A0008B50A0008000000008B
:10002000000000000000000000000000B50A000809
:100030000000000000000000B50A0008B50A000832
:10004000B50A0008B50A0008B50A0008B50A000894
:10005000B50A0008B50A0008B50A0008B50A000884
:10006000B50A0008B50A0008B50A0008B50A000874
:10007000B50A0008B50A0008B50A0008B50A000864
:10008000B50A0008410A0008B50A0008B50A0008C8
:10009000B50A0008B50A0008B50A0008B50A000844
:1000A000B50A0008B50A0008B50A0008B50A000834
:1000B000B50A00081D0A0008B50A0008B50A0008BC
:1000C000B50A0008B50A0008B50A0008B50A000814
:1000D000B50A0008B50A0008B50A0008B50A000804
:1000E000B50A0008B50A0008B50A0008B50A0008F4
:1000F000B50A0008B50A0008B50A0008B50A0008E4
:10010000B50A0008B50A0008B50A0008B50A0008D3
:10011000B50A0008B50A0008B50A0008B50A0008C3
:10012000B50A0008B50A0008B50A0008B50A0008B3
:10013000B50A00080000000000000000B50A000831
:10014000B50A0008B50A0008B50A0008B50A000893
:10015000B50A0008B50A0008B50A0008B50A000883
:10016000B50A0008B50A0008B50A0008B50A000873
:10017000B50A0008B50A0008B50A0008000000002A
:10018000000000000000000000000000000000006F
:10019000B50A00080000000000000000B50A0008D1
:1001A000000000000000000000000000B50A000888
:1001B000B50A0008B50A0008B50A0008B50A000823
:0401C000B50A000874
:1001C40010B5054C237833B9044B13B10448AFF38D
:1001D40000800123237010BD0400002000000000F3
:1001E400B80A000808B5034B1BB103490348AFF331
:1001F400008008BD0000000008000020B80A0008C4
:1002040070B50D4D0D4C641BA4100026A64209D1F7
:100214000B4D0C4C00F04EFC641BA4100026A642AF
:1002240005D170BD55F8043B98470136EEE755F803
:10023400043B98470136F2E7D00A0008D00A0008C8
:10024400D00A0008D80A000870477047024B13B15F
:10025400024800F005B87047000000007102000871
:10026400002301461A46184600F014B838B5074D65
:10027400074C641BA4101CB9BDE8384000F020BC36
:10028400013C55F824309847F5E700BFD80A000828
:10029400DC0A00082DE9F047DFF874A00646DAF816
:1002A400000098460F469146FFF7CEFF164B1C6898
:1002B4000CB9164C1C606568DAF800001F2D05DDCA
:1002C400FFF7C3FF4FF0FF30BDE8F0879EB104EBAA
:1002D40085010122C1F88890D4F88831AA401343DB
:1002E400C4F88831022EC1F8088102BFD4F88C31D9
:1002F4001343C4F88C316B1C0235636044F82570D9
:10030400FFF7A3FF0020DFE72400002028000020DF
:1003140000000020184A136C43F0010313644FF0EB
:1003240080431A6822F001021A6018229A6240F28D
:10033400E732DA62DA6922F07302DA61DA6942F0EA
:100344006002DA61DA6942F00802DA611A6A42F498
:1003540080721A621A6A22F400721A62DA6B120C40
:100364001204DA635A6942F001025A611A6842F0CF
:1003740001021A60704700BF003802401F4A136828
:1003840043F4803313601D4B1B6813F4003FFAD011
:100394001A4B9A6822F4E0529A609A6842F48052A6
:1003A4009A609A6842F400429A605968144A0A4072
:1003B4005A605A6842F004025A605A6842F4C852B9
:1003C4005A605A6842F480325A605A6842F4800291
:1003D4005A601A6842F080721A60084B1B6813F066
:1003E400007FFAD0054A936843F002039360034BFD
:1003F4009B6803F00C03082BF9D1704700380240C6
:100404000080BCFF044B1A6822F00F021A601A68BD
:1004140042F001021A607047003C0240184B5A6CCB
:1004240042F480725A645B6C164A536823F4403376
:1004340043F480335360144B4FF480725A604FF48A
:100444008012DA624FF4A4725A631A6922F0E062ED
:100454001A611A6942F080721A61DA6822F007029E
:10046400DA60DA6842F00102DA6000229A6040F24F
:1004740002329A609A6842F001029A60704700BFA3
:10048400003802400023014000200140254A136B3C
:1004940043F007031363244B1A6822F4403222F01A
:1004A400F0021A601A6842F4803242F0A0021A6024
:1004B400196A1E4A0A401A621A6A42F4EE421A6221
:1004C400DA6822F0F00242F04002DA6003F5806359
:1004D4001A6822F4401222F003021A601A6842F4E5
:1004E400001242F003021A605A6A22F470625A62DD
:1004F4005A6A42F480725A62DA6822F4401222F094
:100504000302DA6003F580631A6822F003021A60BA
:100514001A6842F003021A60DA6822F00302DA6011
:10052400704700BF003802400000024000FF030093
:10053400124A136B43F48003136302F530521369B8
:1005440023F0010313610E4B1B6913F0010FFAD161
:100554000B4B1A6922F060621A614FF434521A612B
:1005640000225A6202225A61064A9A61064ADA61F4
:100574001A6942F001021A61704700BF0038024054
:10058400006402404C200140FC010020154A136B1A
:1005940043F400131363144B4FF47412DA60D3F86A
:1005A400A02042F00062C3F8A020104AC3F8A8209B
:1005B400D3F8A02042F04002C3F8A020D3F8A02032
:1005C40042F48062C3F8A020D3F8A02042F01002C5
:1005D400C3F8A020D3F8A02022F4C052C3F8A0206E
:1005E400704700BF003802400060024004440040ED
:1005F4000B4A136C43F4003313640A4BDA6842F079
:100604001002DA605A6942F080025A61D9229A6073
:10061400DA6842F4005242F00802DA60704700BF20
:100624000038024000440040104B1A6C42F00202B1
:100634001A641B6C0E4B1A6822F001021A6018220D
:100644009A6240F2E732DA625A6942F001025A6170
:100654001A6922F001021A61DA6842F00102DA60D2
:100664001A6842F001021A60704700BF0038024065
:1006740000040040064B102283F81D23002283F857
:1006840011234FF000521A604FF400321A60704781
:1006940000E100E02B490B889BB207EE903AF8EE9C
:1006A400677A9FED296A67EE867ADFED286A87EE1E
:1006B400A67AFCEEC77A17EE903A9AB24B889BB2B0
:1006C40007EE103AB8EE477A27EE067AC7EE267A96
:1006D400FCEEE77A17EE903A9BB29B1A07EE903A3B
:1006E400F8EEE77ABFEE007AF4EEC77AF1EE10FA8C
:1006F40006DDB7EE007AF4EEC77AF1EE10FA15D4FF
:10070400F5EEC07AF1EE10FA15DD114B4FF480725C
:100714009A614FF0804393ED0B7AB8EE477A67EE17
:10072400277AFCEEE77AC3ED0F7A70474FF08043E7
:100734000022DA637047064B4FF080729A61F1EE43
:10074400677AE6E7FC0100200000874300F07F455C
:1007540000000240002803DB98B182B0002331E09E
:10076400274B1B78DBB23F2B08D8254A1378D9B224
:100774000133DBB21370234B2D225A54404200B292
:10078400EAE71F4B1B78DBB23F2B38D81C4A13789F
:10079400D9B20133DBB213701A4B30225A5470476A
:1007A400194981FB0021C217C2EBA10202EB8201AD
:1007B400A0EB4101303103F10800684400F8081C43
:1007C40010B201330028EBDC00E013465A1EA3B13B
:1007D40002F108036B4413F8081C094B1B78DBB2C5
:1007E4003F2BF2D8064803785FFA83FC0133DBB26F
:1007F4000370044B03F80C10E7E702B0704770472E
:10080400BB010020BC01002067666666DFED047A48
:1008140020EE270ABDEEC00A10EE103A18B2704757
:100824000000C8422DE9F0412DED048B564A53884F
:100834009BB207EE903AF8EE677ADFED546A67EE02
:10084400A67A9FED537A87EE870A13889BB207EE48
:10085400903AF8EE677A67EEA67A87EE878A30EEEA
:10086400489A4FF08043D3ED0F7AF8EE677A9FED04
:10087400497A67EE877A93ED0B7AB8EE477AC7EE3A
:10088400878AFFF7C3FF0746B0EE480AFFF7BEFFAB
:100894000646B0EE490AFFF7B9FF0446B0EE680A0F
:1008A400FFF7B4FF0546DFF8FC80002388F800302A
:1008B400394A01211170394A13703846FFF74AFF4B
:1008C40098F80030DBB23F2B09D898F80030D9B241
:1008D4000133DBB288F80030314B20225A543046C1
:1008E400FFF738FF2F4B1B78DBB23F2B08D82D4A7C
:1008F4001378D9B20133DBB21370294B20225A5436
:100904002846FFF727FF274B1B78DBB23F2B08D87D
:10091400244A1378D9B20133DBB21370204B20225E
:100924005A542046FFF716FF1E4B1B78DBB23F2BB1
:1009340008D81C4A1378D9B20133DBB21370184BB0
:100944000D225A54174B1B78DBB23F2B08D8154A9B
:100954001378D9B20133DBB21370114B0A225A5403
:10096400104B1A78D2B2104BC3F8A4200C4AC3F827
:10097400AC20D3F8A02042F00102C3F8A020BDECC3
:10098400048BBDE8F08100BFFC0100200000874318
:1009940000F07F450000C842B9010020BA010020E0
:1009A400BC010020BB0100200060024008B5FFF735
:1009B40029FD154AD2F8883043F47003C2F8883010
:1009C400FFF7DCFCFFF762FDFFF7A4FCFFF726FD51
:1009D400FFF7DCFDFFF7ACFDFFF70AFEFFF724FE8F
:1009E400FFF748FE094A936843F080439360084B3D
:1009F4001B78002BFBD0FFF74DFE064B1B78002B1A
:100A0400F5D1FFF70FFFF2E700ED00E00020014011
:100A1400B8010020B9010020064B1B6913F0010F37
:100A240007D0054B01221A70024A136923F001030F
:100A34001361704700040040B8010020064B5B6856
:100A440013F4001F07D0054B00221A70024AD36822
:100A540043F40013D360704700600240B9010020E2
:100A64000D488546AFF300800C480D490D4A00231C
:100A740002E0D458C4500433C4188C42F9D30A4A4F
:100A84000A4C002301E013600432A242FBD3FFF7B7
:100A9400B7FBFFF78BFFFEE70000022000000020F9
:100AA40004000020DC0A00080400002000020020EA
:100AB400FEE70000F8B500BFF8BC08BC9E467047CE
:0C0AC400F8B500BFF8BC08BC9E467047A7
:080AD00051020008E9010008D1
:040AD800C50100084C
:040ADC0020000020D6
:0400000508000A6580
:00000001FF
