:020000040800F2
:10000000000002205D0F0008AD0F0008590F000826
:10001000AD0F0008AD0F0008AD0F00080000000094
:10002000000000000000000000000000AD0F00080C
:100030000000000000000000AD0F0008AD0F000838
:10004000AD0F0008AD0F0008AD0F0008AD0F0008A0
:10005000AD0F0008AD0F0008AD0F0008AD0F000890
:10006000AD0F0008AD0F0008AD0F0008AD0F000880
:10007000AD0F0008AD0F0008AD0F0008AD0F000870
:10008000AD0F0008AD0F0008AD0F0008AD0F000860
:10009000AD0F0008AD0F0008AD0F0008AD0F000850
:1000A000AD0F0008AD0F0008AD0F0008AD0F000840
:1000B000AD0F0008AD0F0008AD0F0008AD0F000830
:1000C000AD0F0008AD0F0008AD0F0008AD0F000820
:1000D000AD0F0008AD0F0008B90E0008AD0F000805
:1000E000AD0F0008AD0F0008AD0F0008AD0F000800
:1000F000AD0F0008AD0F0008AD0F0008AD0F0008F0
:10010000AD0F0008AD0F0008AD0F0008AD0F0008DF
:10011000AD0F0008AD0F00087D0E0008AD0F000800
:10012000AD0F0008AD0F0008AD0F0008AD0F0008BF
:10013000AD0F00080000000000000000AD0F000837
:10014000AD0F0008AD0F0008AD0F0008AD0F00089F
:10015000AD0F0008AD0F0008AD0F0008AD0F00088F
:10016000AD0F0008AD0F0008AD0F0008AD0F00087F
:10017000AD0F0008AD0F0008AD0F00080000000033
:10018000000000000000000000000000000000006F
:10019000AD0F00080000000000000000AD0F0008D7
:1001A000000000000000000000000000AD0F00088B
:1001B000AD0F0008AD0F0008AD0F0008AD0F00082F
:0401C000AD0F000877
:1001C80010B5054C237833B9044B13B10448AFF389
:1001D80000800123237010BD1400002000000000DF
:1001E800241A000808B5034B1BB103490348AFF3B1
:1001F800008008BD0000000018000020241A000834
:1002080070B54FF0FF0C4CF4E06C1CEA11541DBFA4
:100218001CEA135594EA0C0F95EA0C0F00F0DEF86F
:100228002C4481EA030621EA4C5123EA4C5350EA54
:10023800013518BF52EA033541F4801143F48013A5
:1002480038D0A0FB02CE4FF00005E1FB02E506F036
:100258000042E0FB03E54FF00006E1FB03569CF08B
:10026800000F18BF4EF0010EA4F1FF04B6F5007F91
:1002780064F5407404D25FEA4E0E6D4146EB060603
:1002880042EAC62141EA55514FEAC52040EA5E508C
:100298004FEACE2EB4F1FD0C88BFBCF5E06F1ED836
:1002A800BEF1004F08BF5FEA500E50F1000041EB6D
:1002B800045170BD06F0004646EA010140EA02001A
:1002C80081EA0301B4EB5C04C2BFD4EB0C0541EA3C
:1002D800045170BD41F480114FF0000E013C00F351
:1002E800AB8014F1360FDEBF002001F0004170BD75
:1002F800C4F10004203C35DA0C341BDC04F114048E
:10030800C4F1200500FA05F320FA04F001FA05F219
:1003180040EA020001F0004221F0004110EBD370E6
:1003280021FA04F642EB06015EEA430E08BF20EA12
:10033800D37070BDC4F10C04C4F1200500FA04F3B5
:1003480020FA05F001FA04F240EA020001F0004147
:1003580010EBD37041F100015EEA430E08BF20EABA
:10036800D37070BDC4F1200500FA05F24EEA020E02
:1003780020FA04F301FA05F243EA020321FA04F031
:1003880001F0004121FA04F220EA020000EBD370E8
:100398005EEA430E08BF20EAD37070BD94F0000FE8
:1003A8000FD101F00046400041EB010111F4801F1C
:1003B80008BF013CF7D041EA060195F0000F18BFCD
:1003C800704703F00046520043EB030313F4801F09
:1003D80008BF013DF7D043EA0603704794EA0C0FC3
:1003E8000CEA135518BF95EA0C0F0CD050EA4106D9
:1003F80018BF52EA4306D1D181EA030101F0004156
:100408004FF0000070BD50EA410606BF104619467D
:1004180052EA430619D094EA0C0F02D150EA013689
:1004280013D195EA0C0F05D152EA03361CBF1046CA
:1004380019460AD181EA030101F0004141F0FE4169
:1004480041F470014FF0000070BD41F0FE4141F4ED
:10045800780170BD81F0004102E000BF83F00043E5
:1004680030B54FEA41044FEA430594EA050F08BF47
:1004780090EA020F1FBF54EA000C55EA020C7FEA0B
:10048800645C7FEA655C00F0E2804FEA5454D4EB88
:100498005555B8BF6D420CDD2C4480EA020281EA52
:1004A800030382EA000083EA010180EA020281EA8A
:1004B8000303362D88BF30BD11F0004F4FEA0131DC
:1004C8004FF4801C4CEA113102D0404261EB4101EB
:1004D80013F0004F4FEA03334CEA133302D0524271
:1004E80063EB430394EA050F00F0A780A4F101042D
:1004F800D5F1200E0DDB02FA0EFC22FA05F2801867
:1005080041F1000103FA0EF2801843FA05F359414C
:100518000EE0A5F120050EF1200E012A03FA0EFCCB
:1005280028BF4CF0020C43FA05F3C01851EBE371F5
:1005380001F0004507D54FF0000EDCF1000C7EEB12
:1005480000006EEB0101B1F5801F1BD3B1F5001F50
:100558000CD349085FEA30004FEA3C0C04F101046F
:100568004FEA445212F5800F80F09A80BCF1004F98
:1005780008BF5FEA500C50F1000041EB045141EA1A
:10058800050130BD5FEA4C0C404141EB0101013CE3
:1005980028BFB1F5801FE9D291F0000F04BF0146D2
:1005A8000020B1FA81F308BF2033A3F10B03B3F1A4
:1005B80020020CDA0C3208DD02F1140CC2F10C0234
:1005C80001FA0CF021FA02F10CE002F11402D8BF92
:1005D800C2F1200C01FA02F120FA0CFCDCBF41EA5E
:1005E8000C019040E41AA2BF01EB0451294330BD2D
:1005F8006FEA04041F3C1CDA0C340EDC04F114040A
:10060800C4F1200220FA04F001FA02F340EA0300E0
:1006180021FA04F345EA030130BDC4F10C04C4F126
:10062800200220FA02F001FA04F340EA0300294606
:1006380030BD21FA04F0294630BD94F0000F83F450
:10064800801306BF81F480110134013D4EE77FEA33
:10065800645C18BF7FEA655C29D094EA050F08BF7F
:1006680090EA020F05D054EA000C04BF1946104660
:1006780030BD91EA030F1EBF0021002030BD5FEAA4
:10068800545C05D14000494128BF41F0004130BDCC
:1006980014F580043CBF01F5801130BD01F0004520
:1006A80045F0FE4141F470014FF0000030BD7FEA93
:1006B800645C1ABF194610467FEA655C1CBF0B468E
:1006C800024650EA013406BF52EA033591EA030FA5
:1006D80041F4002130BD00BF90F0000F04BF00219D
:1006E800704730B54FF4806404F132044FF00005D0
:1006F8004FF0000150E700BF90F0000F04BF002149
:10070800704730B54FF4806404F1320410F00045AE
:1007180048BF40424FF000013EE700BF42004FEAA9
:10072800E2014FEA31014FEA02701FBF12F07F4326
:1007380093F07F4F81F06051704732F07F4208BFDD
:10074800704793F07F4F04BF41F40021704730B5E4
:100758004FF4607401F0004521F000411CE700BF30
:1007680050EA010208BF704730B54FF000050AE0B3
:1007780050EA010208BF704730B511F0004502D5B4
:10078800404261EB41014FF4806404F132045FEAB6
:10079800915C3FF4D8AE4FF003025FEADC0C18BF5F
:1007A80003325FEADC0C18BF033202EBDC02C2F151
:1007B800200300FA03FC20FA02F001FA03FE40EAE3
:1007C8000E0021FA02F11444BDE600BF4FEA4102CF
:1007D800B2F1E04324BFB3F5001CDCF1FE5C0DD997
:1007E80001F0004C4FEAC0024CEA5070B2F1004FE1
:1007F80040EB830008BF20F00100704711F0804FE4
:1008080021D113F13872BCBF01F00040704741F4A8
:1008180080114FEA5252C2F11802C2F1200C10FAAC
:100828000CF320FA02F018BF40F001004FEAC12390
:100838004FEAD32303FA0CFC40EA0C0023FA02F334
:100848004FEA4303CCE77FEA625307D150EA01330A
:100858001EBF4FF0FE4040F44000704701F00040DA
:1008680040F0FE4040F40000704700BF70B50D4DE9
:100878000D4C641BA4100026A64209D10B4D0C4C4C
:1008880001F0CCF8641BA4100026A64205D170BD67
:1008980055F8043B98470136EEE755F8043B98476E
:1008A8000136F2E70C1E00080C1E00080C1E00089A
:1008B800141E000870477047024B13B1024800F03D
:1008C80005B8704700000000E10800080023014651
:1008D8001A46184600F014B838B5074D074C641B83
:1008E800A4101CB9BDE8384001F09EB8013C55F889
:1008F80024309847F5E700BF141E0008181E0008AA
:100908002DE9F047DFF874A00646DAF800009846AB
:100918000F469146FFF7CEFF164B1C680CB9164CD4
:100928001C606568DAF800001F2D05DDFFF7C3FFBE
:100938004FF0FF30BDE8F0879EB104EB850101223E
:10094800C1F88890D4F88831AA401343C4F8883194
:10095800022EC1F8088102BFD4F88C311343C4F8C1
:100968008C316B1C0235636044F82570FFF7A3FFD8
:100978000020DFE7340000203800002000000020BD
:1009880010B52DED028B00241DE0114B93ED008A6C
:10099800F6EE007A28EE278A07EE904AF8EEE77A14
:1009A8000C4B93ED007A67EE877A9FED0B0A87EE82
:1009B800800A00F0F9FA28EE008A084B03EB84035A
:1009C80083ED008A0134412CDFDDBDEC028B10BDC4
:1009D80008000020E002002000007A44C80100203E
:1009E80010B5154B1C786000FFF786FE10A3D3E9FD
:1009F8000023FFF705FCFFF7E9FE104B1860104BCA
:100A0800104A1A6007EE904AB8EEE77AF7EE006AE5
:100A1800C6EE877A0C4BC3ED007AB6EE007A67EE25
:100A2800877A0A4BC3ED007A10BD00BFAFF3008090
:100A3800182D4454FB21094004000020E002002046
:100A4800DC0200206F12833AD4020020D802002072
:100A58001B4A136843F480331360194B1B6813F463
:100A6800003FFAD0164B9A6842F480529A6059684F
:100A7800144A0A405A605A6842F008025A605A6892
:100A880042F4C8525A605A6842F480325A605A682E
:100A980042F480025A601A6842F080721A60084B69
:100AA8001B6813F0007FFAD0054A936843F00203ED
:100AB8009360034B9B6803F00C03082BF9D1704734
:100AC800003802400080BCFF044B1A6822F00F0275
:100AD8001A601A6842F001021A607047003C02402E
:100AE800034AD2F8883043F47003C2F8883070475C
:100AF80000ED00E0164A136B43F005031363154B32
:100B0800196841F0A0011960D96821F0C001D960C5
:100B1800D96841F04001D960116C41F40031116489
:100B2800A2F5FA3219219160D16841F00C01D16027
:100B3800D16841F02001D160D16841F40051D16001
:100B4800054A402151601A6A42F4EE421A6270471F
:100B5800003802400000024000E100E00C4B1B7826
:100B6800ABB910B401220B4B1A800B4B19888C18A7
:100B78001C800A4C605400211980054B1A70084AE1
:100B8800D36843F08003D3605DF8044B7047704727
:100B9800F2020020E6020020F4020020F802002001
:100BA80000440040104B1A6B42F001021A630F4ACE
:100BB800116821F440711160116841F440711160AD
:100BC8001A6C42F000521A64094A136843F0010390
:100BD8001360074B1B6813F0010FFAD0044B40F663
:100BE800FF729A60704700BF003802400000024060
:100BF80000740040094A136C43F010031364084B57
:100C080031229A624FF47A72DA62DA6842F00102AB
:100C1800DA601A6842F001021A6070470038024030
:100C280000100040024B4FF480025A60704700BF2A
:100C380000E100E070B5FFF747FFFFF709FFFFF796
:100C48004FFFFFF7CDFEFFF79BFEFFF753FFFFF7C0
:100C5800A9FFFFF7CFFFFFF7E5FF25E0724B03EB96
:100C68008203D3ED007A9FED717A77EE877A704B25
:100C7800C3ED007A6E4BD3ED006A9FED6E7AC6EE37
:100C8800877A9FED6D7A67EE877AFCEEE77A17EE42
:100C9800903A9BB2694A9360694B00221A70694B7B
:100CA8001B78002B40F08C80654B1B78002BF6D00E
:100CB800654B1A8807EE902AB8EE677A634BD3ED36
:100CC800007A67EE277A624B1B68613B032BD1D809
:100CD80001A151F823F000BF650C0008F10C0008D1
:100CE800370D0008A70D00085A4B93ED007AB4EEB3
:100CF800E77AF1EE10FA0EDD574BD3ED007AB6EE37
:100D0800007A67EE877A9FED497A77EE877A484BC3
:100D1800C3ED007AAEE7504B93ED007AF6EE007A19
:100D280027EE277ADFED417A77EEC77AEFE7494B6E
:100D3800D3ED006AF4EEE76AF1EE10FA16DD464BE1
:100D480093ED007AB6EE006A27EE067A9FED376AD1
:100D580036EE476A37EE077A27EE277AC7EE267A05
:100D680076EE277A324BC3ED007A83E73A4B93ED60
:100D7800007AB6EE006A27EE067A9FED2C6A37EE07
:100D8800066A37EE077A77EEE67A27EE277AC7EE15
:100D9800267A76EE677A264BC3ED007A6AE7DFEDAE
:100DA8002F6AC7EE267A2C4B93ED007A67EE877A86
:100DB8009FED2B7A77EE877A1D4BC3ED007A59E7C2
:100DC800284B5A791B78552A08BFAA2B28D1254ABF
:100DD8009678D57846EA052323490B8007EE903AA2
:100DE800F8EE677ADFED146A87EEA67ADFED117AFE
:100DF80067EE277A184BC3ED007A13791B4C2370E2
:100E0800FFF7EEFDFFF7BCFD3046FFF7A7FE2846CB
:100E1800FFF7A4FE2078FFF7A1FE154B00221A80E9
:100E2800084B00221A703FE7C80100203333D33F34
:100E3800D00200203333534000F07F450074004057
:100E4800FF020020FE020020E4020020DC02002055
:100E580010000020D8020020080000200000844272
:100E68003333533FEC0200200C0000200400002024
:100E7800E80200200B4B1B6913F0010F0DD00A4B41
:100E880001221A70094A1388591C1180412B05D078
:100E9800044A136923F001031361704713460022C3
:100EA8001A80F5E700100040FF020020E40200204D
:100EB8001F4B1B6813F0200F17D01D4B5A68D2B276
:100EC8001C4B1B88052B02D91A4B00211980194885
:100ED80001884B1C9BB2038017484254062B00D054
:100EE8007047164B01221A707047114B1B6813F09C
:100EF800800FF5D0124B1B78002BF1D0114B1B88BB
:100F0800114A1288934207D2591C0E4A11800F4A7F
:100F1800D25C074B5A607047054AD36823F08003B8
:100F2800D3600023064A1370064A1380D8E700BF2F
:100F380000440040E8020020EC020020FE020020ED
:100F4800F2020020F4020020E6020020F80200204D
:100F5800FEE700000D488546AFF300800C480D49B8
:100F68000D4A002302E0D458C4500433C4188C42FC
:100F7800F9D30A4A0A4C002301E013600432A24262
:100F8800FBD3FFF773FCFFF755FEFEE700000220D6
:100F98000000002014000020181E00081400002083
:100FA80000030020FEE7000010EE103A07B51F4AC4
:100FB80023F00043934207D8DFED1D0A002003B059
:100FC8005DF804EB00F08EB8B3F1FF4F04D330EEB8
:100FD800400A03B05DF804FB684600F0CBF800F067
:100FE800030001280AD002280FD0C0B9DDED010A9C
:100FF8009DED000A012000F075F8EAE7DDED010A31
:101008009DED000A00F016F8E3E7DDED010A9DED1D
:10101800000A012000F066F8B1EE400AD9E7DDEDDC
:10102800010A9DED000A00F005F8F5E7D80F493FE1
:101038000000000010EE103A23F00043B3F1485FBF
:10104800F0EE406AB7EE000A04D2FDEEE67A17EE3B
:10105800902A42B326EEA67ADFED1A7A9FED1A6A35
:101068001A4AA7EE276A9342DFED197AE6EE077A65
:101078009FED186AA7EE876ADFED177AE6EE077A22
:101088009FED166AA7EE876A60EEE60A26EE076A03
:10109800F6EE007AE7EE060A67EE277A04D877EECE
:1010A800E07A30EE670A70470D4A93429ABF03F11F
:1010B8007F4307EE103AB5EE027A30EE470A77EE34
:1010C800C77AECE74ED747ADF6740F319999993E38
:1010D8007CF293B4010DD037610BB6BAABAA2A3DA6
:1010E8000000483F10EE103A23F00043B3F1485F88
:1010F80004D2FDEEC07A17EE903A5BB320EE007A88
:10110800DFED157A9FED156AA7EE276ADFED147AF1
:10111800E6EE077A9FED136AA7EE876ADFED127A8B
:1011280060EE076AE6EE077A30B99FED106AA7EE1F
:10113800276AA6EE260A704767EEE67AB6EE006AD8
:10114800E0EE867AD7EE870ADFED097AE6EEA70A9F
:1011580030EE600A704700BFD3C92E2F342FD7B2A4
:101168001BEF3836010D50B98988083CABAA2ABE56
:10117800ABAA2A3EF0B510EE106A884B26F000455F
:101188009D4287B0044605D8002380ED000A4360DD
:10119800002022E0824B9D423AD826F00043002EE0
:1011A8009FED807A804A23F00F0318DD934270EE9A
:1011B800477A09BF9FED7D7ADFED7D6ADFED7D6AB5
:1011C80077EEC77A37EEE67A77EEC77A80ED007A5F
:1011D80077EEE67AC0ED017A012007B0F0BD9342C0
:1011E80070EE077A09BF9FED717ADFED716ADFED66
:1011F800716A77EE877A37EEA67A77EEC77A80ED4E
:10120800007A77EEA67AC0ED017A4FF0FF30E4E776
:10121800694B9D4273D800F0DDF89FED687AF6EED1
:10122800007AE0EE077AFDEEE77AB8EEE77A17EE95
:10123800900ADFED5C7AA7EE670A1F28DFED5C7A7B
:1012480067EE277AB1EE476A70EE676A16EE901A73
:1012580009DC5B4A471E26F0004352F8272023F09A
:10126800FF03934207D1C1F3C752C2EBD552082AF4
:101278004FEAE55314DC216094ED007A30EE470A1A
:10128800002E30EE670A84ED010AA6DAB1EE477A3D
:10129800B1EE400A84ED007A84ED010A40429CE7F1
:1012A800DFED425AF0EE406AE6EE256A70EE667AA5
:1012B800E6EE257ADFED3F5AD7EE257A76EEE75A45
:1012C80015EE902AC2F3C7515B1A192B04DCC4ED42
:1012D800005AB0EE660ACFE7DFED3A5AB0EE660A7A
:1012E800A6EE250A76EEC07ADFED376AE6EE257AB5
:1012F800D7EE267A30EE677A84ED007ABCE7B5F14E
:10130800FF4F06D370EE407AC0ED017AC0ED007A47
:101318003EE7EA15863AA5EBC25307EE903ABDEED2
:10132800E77ADFED2A6AB8EEC77A77EEC77A8DEDED
:10133800037A67EEA67ABDEEE77AB8EEC77A77EE5B
:10134800C77A8DED047A67EEA67AF5EE407AF1EE6B
:1013580010FACDED057A1ED1B5EE407AF1EE10FA0D
:101368000CBF012302231A4901910221009103A80D
:10137800214600F037F8002EBFF62FAFD4ED007AE3
:10138800F1EE677AC4ED007AD4ED017AF1EE677A6E
:10139800C4ED017A82E70323E5E700BFD80F493F90
:1013A800E3CB1640800FC93FD00FC93F0044353703
:1013B8004344353708A3852E800F494384F9223FDB
:1013C8003C1A000800A3852E32318D24000080438A
:1013D800BC1A000810EE103A23F0004300EE103A51
:1013E800704700002DE9F04F2DED048BD9B09046E1
:1013F8000190B94A669818F1040F52F820A00F46D8
:1014080003F1FF3B27DBB8F1030248BF08F10402F0
:10141800D210551C67999FEDB47AE800A2EB0B0631
:101428000290A8EBC5050AEB0B0C1CAC01EB860E71
:101438000020604511DD1CA901EB83000DF58879BA
:101448004FF0000CD44527DCDDF804E0DFEDA67A88
:101458000646002416E00022DBE7C6425DBF5EF8C0
:10146800201007EE901AF8EEE77AF0EE477AE4ECEF
:10147800017A0130DDE7FEEC016A96ED007AE6EECE
:10148800877A01345C45A6F10406F4DDE9EC017ABB
:101498000CF1010C0430D5E708A901EB8A0104918D
:1014A8006799DFED908A9FED8E9A01EB8202039295
:1014B8005446A200059258AA02EB840212ED140ABF
:1014C80044A908AA01EB840094462646002EA0F100
:1014D80004004CDC2846CDE9062300F0F5F9B0EE0F
:1014E800408AB4EE000A28EE000A00F053FAF2EE41
:1014F800007AA0EE678A002DDDE90623FDEEC87AA2
:1015080017EE909AF8EEE77A38EE678A41DD04F133
:10151800FF3C08A9C5F1080E51F82C6046FA0EF0F8
:10152800814400FA0EF0361AC5F1070041F82C6024
:101538000641002E3CDD4FF0000E09F1010970460E
:10154800744568DC002D03DD012D74D0022D7DD09B
:10155800022E2DD1B7EE000A30EE488A40B3284655
:10156800069300F0B1F9069B38EE408A20E060EE61
:10157800287A013EFDEEE77AF8EEE77AA7EEC90A87
:10158800BDEEC00AACEC010A90ED000A37EE800A05
:101598009CE705D1601E08A951F82060F611C8E73C
:1015A800F6EE007AB4EEE78AF1EE10FA31DA0026A8
:1015B800B5EE408AF1EE10FA40F09880601E0022E5
:1015C80050454BDA002A65D0013C08AB083D53F87A
:1015D8002430002BF8D02846B7EE000A00F074F942
:1015E800631C44AA9FED3F7A990002EB83022346CD
:1015F800002B80F2A9802346002BC0F2C78044AAA2
:1016080002EB8305DFF8D4C0DFED377A0020E21A59
:10161800B1E002268FE752F8041B48B921B1C1F5A1
:10162800807142F8041C01210EF1010E084687E77B
:10163800C1F1FF01F5E704F1FF3C08AA52F82C209C
:1016480002F07F0208A941F82C2081E704F1FF3C51
:1016580008AA52F82C2002F03F02F3E708A951F833
:10166800201001380A43ABE7013250F8046D002E10
:10167800FAD0059901F5B0710DEB0100E6181CA927
:1016880004F1010C4C3801EB86062244624504DA69
:1016980014460EE704980122E7E70399DDF804E011
:1016A80051F82C10059107EE901AF8EEE77A00240D
:1016B800E6EC017ADFED0C7AB1465C4504DDE0EC3E
:1016C800017A0CF1010CE1E7FEEC016A39ED017ACF
:1016D8000134E6EE877AF0E7001E0008D41D000802
:1016E800000080430000803B00000000029BB0EE39
:1016F800480AA3EB080000F0E7F81FED077AB4EEFC
:10170800C70AF1EE10FA19DB5FED0A7A60EE277A64
:1017180008AAFDEEE77A0835F8EEE77AA7EEC70AD9
:10172800FDEEE77ABDEEC00A10EE103A42F824301A
:1017380017EE903A013442F824304CE7BDEEC00A67
:1017480008AA10EE103AF6E708A850F8230001900E
:1017580007EE900AF8EEE77A013B67EE807A20EE12
:10176800070A62ED017A43E7FCEC016AB5EC017AFD
:10177800E6EE877A0130504501DC8242F4DA58A857
:1017880000EB820242ED287A013B35E7669B022B8B
:1017980009DC002B2BDC44D009F0070059B0BDEC64
:1017A800048BBDE8F08F669B032BF5D130AA0B1F85
:1017B80013441A4620460028A2F1040252DC2246AD
:1017C800012AA3F104035DDC30AB5FED397A0B44E9
:1017D800012C67DCDDED306A9DED317A002E67D192
:1017E800C7ED006A87ED017AC7ED027AD4E730AB1E
:1017F8001FED437A0B442246002A24DA4EB3F1EE59
:10180800477AC7ED007ADDED307A77EEC77A31AAEC
:1018180001239C4220DA0EB1F1EE677AC7ED017A16
:10182800BAE730AB5FED507A0B44002C05DA0EB105
:10183800F1EE677AC7ED007AAEE733ED017A013C45
:1018480077EE877AF1E773ED017A013A37EE277A76
:10185800D2E7F0EE477AD4E7B2EC017A013377EEBB
:10186800877AD6E7D2ED007AD2ED016A37EEA67A0A
:10187800013877EEC77A82ED007A77EEA67AC2ED64
:10188800017A98E7D3ED007AD3ED016A37EEA67AAC
:10189800013A77EEC77A83ED007A77EEA67AC3ED40
:1018A800017A8DE733ED017A013C77EE877A8FE78D
:1018B800F1EE666AB1EE477AC7ED006A87ED017A04
:1018C800F1EE677A90E700BF10EE103A33F000426D
:1018D8002BD0B2F1FF4F02D330EE000A704713F05D
:1018E800FF4F23D1244BDFED257A984220EE270ABB
:1018F80017DB10EE103AC3F3C752193A4CF25031C5
:10190800884215DDDFED1E7ADFED1E6A10EE103A13
:10191800B0EE677A002BB8BFF0EE667A27EE870A3A
:101928007047DFED197A27EE800A7047D20DE5E798
:101938001044FE28E6DC002806DD23F0FF4343EAD6
:10194800C05300EE103A704710F1160F09DADFEDB8
:101958000E7ADFED0E6A10EE103AB0EE677A002BC1
:10196800D9E7193023F0FF4343EAC0539FED080A33
:1019780007EE903AD7E700BFB03CFFFF0000004CED
:10198800CAF24971CAF249F16042A20D6042A28DC1
:101998000000003310EE103AC3F3C7527F3A162AFC
:1019A80023F000412BDC002A12DADFED197A30EE41
:1019B800270AB5EEC00AF1EE10FA06DD002B24DA8C
:1019C8000029144B08BF4FF0004300EE103A70474F
:1019D800114911410B42FAD0DFED0D7A30EE270A9A
:1019E800B5EEC00AF1EE10FAEFDD002BBEBF4FF4E2
:1019F800000040FA02F29B1823EA0103E5E7B1F17F
:101A0800FF4FE4D330EE000A70470023DDE700BF44
:101A1800CAF24971000080BFFFFF7F00F8B500BF20
:101A2800F8BC08BC9E467047F8B500BFF8BC08BCB7
:041A38009E4670470F
:101A3C00000FC93F000F494000CB9640000FC94032
:101A4C000053FB4000CB164100ED2F41000F4941E4
:101A5C000031624100537B41003A8A4100CB9641F0
:101A6C00005CA34100EDAF41007EBC41000FC941B9
:101A7C0000A0D5410031E24100C2EE410053FB41D0
:101A8C0000F20342003A0A420083104200CB164295
:101A9C0000141D42005C234200A5294200ED2F4298
:101AAC0000363642007E3C4200C74242000F49429B
:101ABC00A2000000F9000000830000006E0000008E
:101ACC004E0000004400000015000000290000003A
:101ADC00FC0000002700000057000000D1000000AF
:101AEC00F500000034000000DD000000C000000024
:101AFC00DB0000006200000095000000990000006F
:101B0C003C00000043000000900000004100000079
:101B1C00FE0000005100000063000000AB0000005C
:101B2C00DE000000BB000000C500000061000000EA
:101B3C00B7000000240000006E0000003A00000016
:101B4C00420000004D000000D2000000E000000048
:101B5C0006000000490000002E000000EA00000012
:101B6C0009000000D1000000920000001C000000E1
:101B7C00FE0000001D000000EB0000001C00000037
:101B8C00B100000029000000A70000003E0000008A
:101B9C00E80000008200000035000000F5000000A5
:101BAC002E000000BB000000440000008400000078
:101BBC00E90000009C0000007000000026000000FE
:101BCC00B40000005F0000007E0000004100000037
:101BDC003900000091000000D60000003900000020
:101BEC00830000005300000039000000F4000000E6
:101BFC009C000000840000005F0000008B000000CF
:101C0C00BD000000F9000000280000003B000000AF
:101C1C001F000000F800000097000000FF0000000B
:101C2C00DE00000005000000980000000F0000001E
:101C3C00EF0000002F000000110000008B000000DE
:101C4C005A0000000A0000006D0000001F00000098
:101C5C006D000000360000007E000000CF00000088
:101C6C0027000000CB00000009000000B7000000B6
:101C7C004F000000460000003F000000660000001E
:101C8C009E0000005F000000EA0000002D00000034
:101C9C007500000027000000BA000000C70000001B
:101CAC00EB000000E5000000F10000007B000000EC
:101CBC003D0000000700000039000000F7000000A4
:101CCC008A0000005200000092000000EA000000B0
:101CDC006B000000FB0000005F000000B100000082
:101CEC001F0000008D0000005D00000008000000D7
:101CFC005600000003000000300000004600000009
:101D0C00FC0000007B0000006B000000AB0000003A
:101D1C00F0000000CF000000BC000000200000001C
:101D2C009A000000F4000000360000001D000000C6
:101D3C00A9000000E3000000910000006100000019
:101D4C005E000000E60000001B0000000800000020
:101D5C006500000099000000850000005F00000095
:101D6C0014000000A000000068000000400000000B
:101D7C008D000000FF000000D80000008000000073
:101D8C004D0000007300000027000000310000002F
:101D9C0006000000060000001500000056000000C0
:101DAC00CA00000073000000A8000000C900000079
:101DBC0060000000E20000007B000000C00000009A
:101DCC008C0000006B0000000000C93F0000F039DF
:101DDC000000DA370000A2330000842E0000502BE4
:101DEC000000C2270000D0220000C41F0000C61B48
:101DFC000000441704000000070000000900000068
:081E0C00C1080008ED01000807
:041E1400C9010008F8
:101E1800300000200F0000000000C03F0008000054
:041E28006100000055
:0400000508000F5D83
:00000001FF
