:020000040800F2
:1000000000000220190500086905000869050008BC
:10001000690500086905000869050008000000007E
:10002000000000000000000000000000690500085A
:1000300000000000000000006905000869050008D4
:1000400069050008690500086905000869050008D8
:1000500069050008690500086905000869050008C8
:1000600069050008690500086905000869050008B8
:1000700069050008690500086905000869050008A8
:100080006905000869050008690500086905000898
:100090006905000869050008690500086905000888
:1000A0006905000869050008690500086905000878
:1000B000990300086905000869050008690500083A
:1000C0006905000869050008690500086905000858
:1000D0006905000869050008690500086905000848
:1000E0003103000869050008690500086905000872
:1000F0006905000869050008690500086905000828
:100100006905000869050008690500086905000817
:100110006905000869050008690500086905000807
:1001200069050008690500086905000869050008F7
:1001300069050008000000000000000069050008D3
:1001400069050008690500086905000869050008D7
:1001500069050008690500086905000869050008C7
:1001600069050008690500086905000869050008B7
:10017000690500086905000869050008000000001D
:10018000000000000000000000000000000000006F
:100190006905000800000000000000006905000873
:1001A00000000000000000000000000069050008D9
:1001B0006905000869050008690500086905000867
:0401C00069050008C5
:1001C40010B5054C237833B9044B13B10448AFF38D
:1001D40000800123237010BD0400002000000000F3
:1001E4006C05000808B5034B1BB103490348AFF382
:1001F400008008BD00000000080000206C05000815
:1002040070B50D4D0D4C641BA4100026A64209D1F7
:100214000B4D0C4C00F0A8F9641BA4100026A64258
:1002240005D170BD55F8043B98470136EEE755F803
:10023400043B98470136F2E784050008840500086A
:10024400840500088C05000870477047024B13B101
:10025400024800F005B87047000000007102000871
:10026400002301461A46184600F014B838B5074D65
:10027400074C641BA4101CB9BDE8384000F07AB9DF
:10028400013C55F824309847F5E700BF8C05000879
:10029400900500082DE9F047DFF874A00646DAF867
:1002A400000098460F469146FFF7CEFF164B1C6898
:1002B4000CB9164C1C606568DAF800001F2D05DDCA
:1002C400FFF7C3FF4FF0FF30BDE8F0879EB104EBAA
:1002D40085010122C1F88890D4F88831AA401343DB
:1002E400C4F88831022EC1F8088102BFD4F88C31D9
:1002F4001343C4F88C316B1C0235636044F82570D9
:10030400FFF7A3FF0020DFE72400002028000020DF
:1003140000000020430903F1382340339B0000F020
:100324001F00012282401A6070470000154B5B6970
:1003340013F4005F08D0134B4FF400525A610123A9
:10034400114A1370114A13700E4B5B6913F4805FEA
:1003540008D00C4B4FF480525A6101230C4A13709D
:100364000A4A1370094B1B785BB1064A136823F4DD
:10037400405313604FF0804300225A621A610122F5
:100384001A607047003C0140BA010020B801002007
:10039400B90100204FF080431B6913F0010F1AD0FC
:1003A4004FF0804300221A611A600F4BD3F83432A5
:1003B40093B90E4B01221A700D4BD3F808327BB956
:1003C4000C4B01221A700C4B00221A700B4A136852
:1003D40043F4405313607047044B00221A70EBE758
:1003E400044B00221A70EEE700004142BC010020D9
:1003F40000804142BB010020B8010020003C0140C4
:1004040010B53E4B1A6B42F00C021A635A6C42F45C
:1004140080425A643A4C236843F4AA0242F4AA4242
:10042400226023F0884343F4AA0343F4AA432360DD
:10043400344A136823F488731360E36823F0406339
:10044400E36043F08063E360D36823F03003D36058
:1004540043F01003D3602C4B00225A6102225A61EC
:1004640032225A6103F580631A6842F440521A60DA
:10047400DA6842F44052DA609A6822F440529A6090
:100484004FF0804343F67F629A621422DA620122BB
:10049400DA602820FFF73EFF1C20FFF73BFF102304
:1004A400A36105E01A0416498A6142EA43028A619B
:1004B400134B5A6902F47F631449097849B112F461
:1004C400006FEFD01B040E4A936143F01003936155
:1004D400EEE70F4909780029EAD012F0100F06D090
:1004E4001B04074A936143F400639361E0E71A0431
:1004F40003498A6142EA53028A61D9E7003802401B
:1005040000080240000C024000380140BC010020F9
:10051400BB0100200D488546AFF300800C480D490F
:100524000D4A002302E0D458C4500433C4188C424A
:10053400F9D30A4A0A4C002301E013600432A242B0
:10054400FBD3FFF75DFEFFF75BFFFEE70000022031
:100554000000002004000020900500080400002092
:10056400C0010020FEE70000F8B500BFF8BC08BCDD
:100574009E467047F8B500BFF8BC08BC9E4670475D
:0805840051020008E901000822
:04058C00C50100089D
:040590002000002027
:0400000508000519D1
:00000001FF
